{"contracts/VoteSafe.sol":{"VoteSafe":{"abi":[{"anonymous":false,"inputs":[{"indexed":false,"internalType":"uint256","name":"proposalId","type":"uint256"},{"indexed":false,"internalType":"address","name":"creator","type":"address"},{"indexed":false,"internalType":"string","name":"title","type":"string"}],"name":"ProposalCreated","type":"event"},{"inputs":[{"internalType":"uint256","name":"_proposalId","type":"uint256"},{"internalType":"uint256","name":"_voteChoice","type":"uint256"}],"name":"castVote","outputs":[],"stateMutability":"nonpayable","type":"function"},{"inputs":[{"internalType":"string","name":"_title","type":"string"},{"internalType":"string","name":"_description","type":"string"},{"internalType":"string[]","name":"_options","type":"string[]"},{"internalType":"uint256","name":"_startTime","type":"uint256"},{"internalType":"uint256","name":"_endTime","type":"uint256"}],"name":"createProposal","outputs":[],"stateMutability":"nonpayable","type":"function"},{"inputs":[{"internalType":"uint256","name":"_proposalId","type":"uint256"}],"name":"getProposal","outputs":[{"internalType":"uint256","name":"id","type":"uint256"},{"internalType":"string","name":"title","type":"string"},{"internalType":"string","name":"description","type":"string"},{"internalType":"address","name":"creator","type":"address"},{"internalType":"string[]","name":"votingOptions","type":"string[]"},{"internalType":"uint256","name":"startTime","type":"uint256"},{"internalType":"uint256","name":"endTime","type":"uint256"},{"internalType":"bool","name":"hasVoted","type":"bool"},{"internalType":"bool","name":"isTallyDone","type":"bool"}],"stateMutability":"view","type":"function"},{"inputs":[{"internalType":"uint256","name":"_proposalId","type":"uint256"}],"name":"getResults","outputs":[{"internalType":"uint256[]","name":"counts","type":"uint256[]"}],"stateMutability":"view","type":"function"},{"inputs":[],"name":"nextProposalId","outputs":[{"internalType":"uint256","name":"","type":"uint256"}],"stateMutability":"view","type":"function"},{"inputs":[{"internalType":"uint256","name":"","type":"uint256"}],"name":"proposals","outputs":[{"internalType":"uint256","name":"id","type":"uint256"},{"internalType":"string","name":"title","type":"string"},{"internalType":"string","name":"description","type":"string"},{"internalType":"address","name":"creator","type":"address"},{"internalType":"uint256","name":"startTime","type":"uint256"},{"internalType":"uint256","name":"endTime","type":"uint256"},{"internalType":"bool","name":"isTallyDone","type":"bool"},{"internalType":"bytes32","name":"tallyTxHash","type":"bytes32"}],"stateMutability":"view","type":"function"},{"inputs":[{"internalType":"uint256","name":"_proposalId","type":"uint256"}],"name":"tallyVotes","outputs":[],"stateMutability":"nonpayable","type":"function"}],"evm":{"bytecode":{"linkReferences":{},"object":"6080604052600060015534801561001557600080fd5b50611e11806100256000396000f3fe608060405234801561001057600080fd5b506004361061007d5760003560e01c80634d318b0e1161005b5780634d318b0e146100f357806381a60c0d1461010f578063c7f758a81461013f578063ca21fe66146101775761007d565b8063013cf08b146100825780632ab09d14146100b95780632c0a3f89146100d7575b600080fd5b61009c60048036038101906100979190610d09565b610193565b6040516100b0989796959493929190610e4a565b60405180910390f35b6100c1610318565b6040516100ce9190610ed6565b60405180910390f35b6100f160048036038101906100ec9190610ef1565b61031e565b005b61010d60048036038101906101089190610d09565b610575565b005b61012960048036038101906101249190610d09565b61065a565b6040516101369190610fef565b60405180910390f35b61015960048036038101906101549190610d09565b61071e565b60405161016e9998979695949392919061111d565b60405180910390f35b610191600480360381019061018c91906113da565b6109ef565b005b60006020528060005260406000206000915090508060000154908060010180546101bc906114d8565b80601f01602080910402602001604051908101604052809291908181526020018280546101e8906114d8565b80156102355780601f1061020a57610100808354040283529160200191610235565b820191906000526020600020905b81548152906001019060200180831161021857829003601f168201915b50505050509080600201805461024a906114d8565b80601f0160208091040260200160405190810160405280929190818152602001828054610276906114d8565b80156102c35780601f10610298576101008083540402835291602001916102c3565b820191906000526020600020905b8154815290600101906020018083116102a657829003601f168201915b5050505050908060030160009054906101000a900473ffffffffffffffffffffffffffffffffffffffff169080600501549080600601549080600a0160009054906101000a900460ff169080600b0154905088565b60015481565b60008060008481526020019081526020016000209050806005015442101561037b576040517f08c379a000000000000000000000000000000000000000000000000000000000815260040161037290611555565b60405180910390fd5b80600601544211156103c2576040517f08c379a00000000000000000000000000000000000000000000000000000000081526004016103b9906115c1565b60405180910390fd5b8060070160003373ffffffffffffffffffffffffffffffffffffffff1673ffffffffffffffffffffffffffffffffffffffff16815260200190815260200160002060009054906101000a900460ff1615610451576040517f08c379a000000000000000000000000000000000000000000000000000000000815260040161044890611653565b60405180910390fd5b8060040180549050821061049a576040517f08c379a0000000000000000000000000000000000000000000000000000000008152600401610491906116bf565b60405180910390fd5b60018160070160003373ffffffffffffffffffffffffffffffffffffffff1673ffffffffffffffffffffffffffffffffffffffff16815260200190815260200160002060006101000a81548160ff021916908315150217905550818160080160003373ffffffffffffffffffffffffffffffffffffffff1673ffffffffffffffffffffffffffffffffffffffff168152602001908152602001600020819055508060090182815481106105505761054f6116df565b5b90600052602060002001600081548092919061056b9061173d565b9190505550505050565b6000806000838152602001908152602001600020905080600a0160009054906101000a900460ff16156105dd576040517f08c379a00000000000000000000000000000000000000000000000000000000081526004016105d4906117d1565b60405180910390fd5b80600601544211610623576040517f08c379a000000000000000000000000000000000000000000000000000000000815260040161061a9061183d565b60405180910390fd5b600181600a0160006101000a81548160ff02191690831515021790555060014361064d919061185d565b4081600b01819055505050565b60606000806000848152602001908152602001600020905080600a0160009054906101000a900460ff166106c3576040517f08c379a00000000000000000000000000000000000000000000000000000000081526004016106ba906118dd565b60405180910390fd5b8060090180548060200260200160405190810160405280929190818152602001828054801561071157602002820191906000526020600020905b8154815260200190600101908083116106fd575b5050505050915050919050565b60006060806000606060008060008060008060008c81526020019081526020016000209050806000015481600101826002018360030160009054906101000a900473ffffffffffffffffffffffffffffffffffffffff1684600401856005015486600601548760070160003373ffffffffffffffffffffffffffffffffffffffff1673ffffffffffffffffffffffffffffffffffffffff16815260200190815260200160002060009054906101000a900460ff1688600a0160009054906101000a900460ff168780546107f0906114d8565b80601f016020809104026020016040519081016040528092919081815260200182805461081c906114d8565b80156108695780601f1061083e57610100808354040283529160200191610869565b820191906000526020600020905b81548152906001019060200180831161084c57829003601f168201915b5050505050975086805461087c906114d8565b80601f01602080910402602001604051908101604052809291908181526020018280546108a8906114d8565b80156108f55780601f106108ca576101008083540402835291602001916108f5565b820191906000526020600020905b8154815290600101906020018083116108d857829003601f168201915b5050505050965084805480602002602001604051908101604052809291908181526020016000905b828210156109c957838290600052602060002001805461093c906114d8565b80601f0160208091040260200160405190810160405280929190818152602001828054610968906114d8565b80156109b55780601f1061098a576101008083540402835291602001916109b5565b820191906000526020600020905b81548152906001019060200180831161099857829003601f168201915b50505050508152602001906001019061091d565b505050509450995099509950995099509950995099509950509193959799909294969850565b60008551118015610a01575060008451115b610a40576040517f08c379a0000000000000000000000000000000000000000000000000000000008152600401610a379061196f565b60405180910390fd5b600283511015610a85576040517f08c379a0000000000000000000000000000000000000000000000000000000008152600401610a7c90611a01565b60405180910390fd5b808210610ac7576040517f08c379a0000000000000000000000000000000000000000000000000000000008152600401610abe90611a93565b60405180910390fd5b42821015610b0a576040517f08c379a0000000000000000000000000000000000000000000000000000000008152600401610b0190611aff565b60405180910390fd5b600080600060015481526020019081526020016000209050600154816000018190555085816001019081610b3e9190611ccb565b5084816002019081610b509190611ccb565b50338160030160006101000a81548173ffffffffffffffffffffffffffffffffffffffff021916908373ffffffffffffffffffffffffffffffffffffffff160217905550828160050181905550818160060181905550600081600a0160006101000a81548160ff02191690831515021790555060005b8451811015610c5f5781600401858281518110610be657610be56116df565b5b6020026020010151908060018154018082558091505060019003906000526020600020016000909190919091509081610c1f9190611ccb565b5081600901600090806001815401808255809150506001900390600052602060002001600090919091909150558080610c579061173d565b915050610bc6565b5060016000815480929190610c739061173d565b91905055507f7585f467599d0f008985f231af99293be388626ac16ca59505c2f8f88969cd6381600001543388604051610caf93929190611d9d565b60405180910390a1505050505050565b6000604051905090565b600080fd5b600080fd5b6000819050919050565b610ce681610cd3565b8114610cf157600080fd5b50565b600081359050610d0381610cdd565b92915050565b600060208284031215610d1f57610d1e610cc9565b5b6000610d2d84828501610cf4565b91505092915050565b610d3f81610cd3565b82525050565b600081519050919050565b600082825260208201905092915050565b60005b83811015610d7f578082015181840152602081019050610d64565b60008484015250505050565b6000601f19601f8301169050919050565b6000610da782610d45565b610db18185610d50565b9350610dc1818560208601610d61565b610dca81610d8b565b840191505092915050565b600073ffffffffffffffffffffffffffffffffffffffff82169050919050565b6000610e0082610dd5565b9050919050565b610e1081610df5565b82525050565b60008115159050919050565b610e2b81610e16565b82525050565b6000819050919050565b610e4481610e31565b82525050565b600061010082019050610e60600083018b610d36565b8181036020830152610e72818a610d9c565b90508181036040830152610e868189610d9c565b9050610e956060830188610e07565b610ea26080830187610d36565b610eaf60a0830186610d36565b610ebc60c0830185610e22565b610ec960e0830184610e3b565b9998505050505050505050565b6000602082019050610eeb6000830184610d36565b92915050565b60008060408385031215610f0857610f07610cc9565b5b6000610f1685828601610cf4565b9250506020610f2785828601610cf4565b9150509250929050565b600081519050919050565b600082825260208201905092915050565b6000819050602082019050919050565b610f6681610cd3565b82525050565b6000610f788383610f5d565b60208301905092915050565b6000602082019050919050565b6000610f9c82610f31565b610fa68185610f3c565b9350610fb183610f4d565b8060005b83811015610fe2578151610fc98882610f6c565b9750610fd483610f84565b925050600181019050610fb5565b5085935050505092915050565b600060208201905081810360008301526110098184610f91565b905092915050565b600081519050919050565b600082825260208201905092915050565b6000819050602082019050919050565b600082825260208201905092915050565b600061105982610d45565b611063818561103d565b9350611073818560208601610d61565b61107c81610d8b565b840191505092915050565b6000611093838361104e565b905092915050565b6000602082019050919050565b60006110b382611011565b6110bd818561101c565b9350836020820285016110cf8561102d565b8060005b8581101561110b57848403895281516110ec8582611087565b94506110f78361109b565b925060208a019950506001810190506110d3565b50829750879550505050505092915050565b600061012082019050611133600083018c610d36565b8181036020830152611145818b610d9c565b90508181036040830152611159818a610d9c565b90506111686060830189610e07565b818103608083015261117a81886110a8565b905061118960a0830187610d36565b61119660c0830186610d36565b6111a360e0830185610e22565b6111b1610100830184610e22565b9a9950505050505050505050565b600080fd5b600080fd5b7f4e487b7100000000000000000000000000000000000000000000000000000000600052604160045260246000fd5b61120182610d8b565b810181811067ffffffffffffffff821117156112205761121f6111c9565b5b80604052505050565b6000611233610cbf565b905061123f82826111f8565b919050565b600067ffffffffffffffff82111561125f5761125e6111c9565b5b61126882610d8b565b9050602081019050919050565b82818337600083830152505050565b600061129761129284611244565b611229565b9050828152602081018484840111156112b3576112b26111c4565b5b6112be848285611275565b509392505050565b600082601f8301126112db576112da6111bf565b5b81356112eb848260208601611284565b91505092915050565b600067ffffffffffffffff82111561130f5761130e6111c9565b5b602082029050602081019050919050565b600080fd5b6000611338611333846112f4565b611229565b9050808382526020820190506020840283018581111561135b5761135a611320565b5b835b818110156113a257803567ffffffffffffffff8111156113805761137f6111bf565b5b80860161138d89826112c6565b8552602085019450505060208101905061135d565b5050509392505050565b600082601f8301126113c1576113c06111bf565b5b81356113d1848260208601611325565b91505092915050565b600080600080600060a086880312156113f6576113f5610cc9565b5b600086013567ffffffffffffffff81111561141457611413610cce565b5b611420888289016112c6565b955050602086013567ffffffffffffffff81111561144157611440610cce565b5b61144d888289016112c6565b945050604086013567ffffffffffffffff81111561146e5761146d610cce565b5b61147a888289016113ac565b935050606061148b88828901610cf4565b925050608061149c88828901610cf4565b9150509295509295909350565b7f4e487b7100000000000000000000000000000000000000000000000000000000600052602260045260246000fd5b600060028204905060018216806114f057607f821691505b602082108103611503576115026114a9565b5b50919050565b7f566f74696e6720706572696f6420686173206e6f742073746172746564000000600082015250565b600061153f601d83610d50565b915061154a82611509565b602082019050919050565b6000602082019050818103600083015261156e81611532565b9050919050565b7f566f74696e6720706572696f642068617320656e646564000000000000000000600082015250565b60006115ab601783610d50565b91506115b682611575565b602082019050919050565b600060208201905081810360008301526115da8161159e565b9050919050565b7f596f75206861766520616c726561647920766f746564206f6e2074686973207060008201527f726f706f73616c00000000000000000000000000000000000000000000000000602082015250565b600061163d602783610d50565b9150611648826115e1565b604082019050919050565b6000602082019050818103600083015261166c81611630565b9050919050565b7f496e76616c696420766f74652063686f69636500000000000000000000000000600082015250565b60006116a9601383610d50565b91506116b482611673565b602082019050919050565b600060208201905081810360008301526116d88161169c565b9050919050565b7f4e487b7100000000000000000000000000000000000000000000000000000000600052603260045260246000fd5b7f4e487b7100000000000000000000000000000000000000000000000000000000600052601160045260246000fd5b600061174882610cd3565b91507fffffffffffffffffffffffffffffffffffffffffffffffffffffffffffffffff820361177a5761177961170e565b5b600182019050919050565b7f54616c6c792068617320616c7265616479206265656e20636f6d706c65746564600082015250565b60006117bb602083610d50565b91506117c682611785565b602082019050919050565b600060208201905081810360008301526117ea816117ae565b9050919050565b7f566f74696e6720706572696f64206973206e6f74206f76657220796574000000600082015250565b6000611827601d83610d50565b9150611832826117f1565b602082019050919050565b600060208201905081810360008301526118568161181a565b9050919050565b600061186882610cd3565b915061187383610cd3565b925082820390508181111561188b5761188a61170e565b5b92915050565b7f54616c6c79206973206e6f742079657420636f6d706c65746564000000000000600082015250565b60006118c7601a83610d50565b91506118d282611891565b602082019050919050565b600060208201905081810360008301526118f6816118ba565b9050919050565b7f5469746c6520616e64206465736372697074696f6e2063616e6e6f742062652060008201527f656d707479000000000000000000000000000000000000000000000000000000602082015250565b6000611959602583610d50565b9150611964826118fd565b604082019050919050565b600060208201905081810360008301526119888161194c565b9050919050565b7f4d7573742068617665206174206c656173742074776f20766f74696e67206f7060008201527f74696f6e73000000000000000000000000000000000000000000000000000000602082015250565b60006119eb602583610d50565b91506119f68261198f565b604082019050919050565b60006020820190508181036000830152611a1a816119de565b9050919050565b7f456e642074696d65206d7573742062652061667465722073746172742074696d60008201527f6500000000000000000000000000000000000000000000000000000000000000602082015250565b6000611a7d602183610d50565b9150611a8882611a21565b604082019050919050565b60006020820190508181036000830152611aac81611a70565b9050919050565b7f53746172742074696d65206d75737420626520696e2074686520667574757265600082015250565b6000611ae9602083610d50565b9150611af482611ab3565b602082019050919050565b60006020820190508181036000830152611b1881611adc565b9050919050565b60008190508160005260206000209050919050565b60006020601f8301049050919050565b600082821b905092915050565b600060088302611b817fffffffffffffffffffffffffffffffffffffffffffffffffffffffffffffffff82611b44565b611b8b8683611b44565b95508019841693508086168417925050509392505050565b6000819050919050565b6000611bc8611bc3611bbe84610cd3565b611ba3565b610cd3565b9050919050565b6000819050919050565b611be283611bad565b611bf6611bee82611bcf565b848454611b51565b825550505050565b600090565b611c0b611bfe565b611c16818484611bd9565b505050565b5b81811015611c3a57611c2f600082611c03565b600181019050611c1c565b5050565b601f821115611c7f57611c5081611b1f565b611c5984611b34565b81016020851015611c68578190505b611c7c611c7485611b34565b830182611c1b565b50505b505050565b600082821c905092915050565b6000611ca260001984600802611c84565b1980831691505092915050565b6000611cbb8383611c91565b9150826002028217905092915050565b611cd482610d45565b67ffffffffffffffff811115611ced57611cec6111c9565b5b611cf782546114d8565b611d02828285611c3e565b600060209050601f831160018114611d355760008415611d23578287015190505b611d2d8582611caf565b865550611d95565b601f198416611d4386611b1f565b60005b82811015611d6b57848901518255600182019150602085019450602081019050611d46565b86831015611d885784890151611d84601f891682611c91565b8355505b6001600288020188555050505b505050505050565b6000606082019050611db26000830186610d36565b611dbf6020830185610e07565b8181036040830152611dd18184610d9c565b905094935050505056fea26469706673582212205ae20728f2aaf130ddf7b147df7598c6c1ceedc2152b1fdfda078dbb6fc73d8564736f6c63430008110033","opcodes":"PUSH1 0x80 PUSH1 0x40 MSTORE PUSH1 0x0 PUSH1 0x1 SSTORE CALLVALUE DUP1 ISZERO PUSH2 0x15 JUMPI PUSH1 0x0 DUP1 REVERT JUMPDEST POP PUSH2 0x1E11 DUP1 PUSH2 0x25 PUSH1 0x0 CODECOPY PUSH1 0x0 RETURN INVALID PUSH1 0x80 PUSH1 0x40 MSTORE CALLVALUE DUP1 ISZERO PUSH2 0x10 JUMPI PUSH1 0x0 DUP1 REVERT JUMPDEST POP PUSH1 0x4 CALLDATASIZE LT PUSH2 0x7D JUMPI PUSH1 0x0 CALLDATALOAD PUSH1 0xE0 SHR DUP1 PUSH4 0x4D318B0E GT PUSH2 0x5B JUMPI DUP1 PUSH4 0x4D318B0E EQ PUSH2 0xF3 JUMPI DUP1 PUSH4 0x81A60C0D EQ PUSH2 0x10F JUMPI DUP1 PUSH4 0xC7F758A8 EQ PUSH2 0x13F JUMPI DUP1 PUSH4 0xCA21FE66 EQ PUSH2 0x177 JUMPI PUSH2 0x7D JUMP JUMPDEST DUP1 PUSH4 0x13CF08B EQ PUSH2 0x82 JUMPI DUP1 PUSH4 0x2AB09D14 EQ PUSH2 0xB9 JUMPI DUP1 PUSH4 0x2C0A3F89 EQ PUSH2 0xD7 JUMPI JUMPDEST PUSH1 0x0 DUP1 REVERT JUMPDEST PUSH2 0x9C PUSH1 0x4 DUP1 CALLDATASIZE SUB DUP2 ADD SWAP1 PUSH2 0x97 SWAP2 SWAP1 PUSH2 0xD09 JUMP JUMPDEST PUSH2 0x193 JUMP JUMPDEST PUSH1 0x40 MLOAD PUSH2 0xB0 SWAP9 SWAP8 SWAP7 SWAP6 SWAP5 SWAP4 SWAP3 SWAP2 SWAP1 PUSH2 0xE4A JUMP JUMPDEST PUSH1 0x40 MLOAD DUP1 SWAP2 SUB SWAP1 RETURN JUMPDEST PUSH2 0xC1 PUSH2 0x318 JUMP JUMPDEST PUSH1 0x40 MLOAD PUSH2 0xCE SWAP2 SWAP1 PUSH2 0xED6 JUMP JUMPDEST PUSH1 0x40 MLOAD DUP1 SWAP2 SUB SWAP1 RETURN JUMPDEST PUSH2 0xF1 PUSH1 0x4 DUP1 CALLDATASIZE SUB DUP2 ADD SWAP1 PUSH2 0xEC SWAP2 SWAP1 PUSH2 0xEF1 JUMP JUMPDEST PUSH2 0x31E JUMP JUMPDEST STOP JUMPDEST PUSH2 0x10D PUSH1 0x4 DUP1 CALLDATASIZE SUB DUP2 ADD SWAP1 PUSH2 0x108 SWAP2 SWAP1 PUSH2 0xD09 JUMP JUMPDEST PUSH2 0x575 JUMP JUMPDEST STOP JUMPDEST PUSH2 0x129 PUSH1 0x4 DUP1 CALLDATASIZE SUB DUP2 ADD SWAP1 PUSH2 0x124 SWAP2 SWAP1 PUSH2 0xD09 JUMP JUMPDEST PUSH2 0x65A JUMP JUMPDEST PUSH1 0x40 MLOAD PUSH2 0x136 SWAP2 SWAP1 PUSH2 0xFEF JUMP JUMPDEST PUSH1 0x40 MLOAD DUP1 SWAP2 SUB SWAP1 RETURN JUMPDEST PUSH2 0x159 PUSH1 0x4 DUP1 CALLDATASIZE SUB DUP2 ADD SWAP1 PUSH2 0x154 SWAP2 SWAP1 PUSH2 0xD09 JUMP JUMPDEST PUSH2 0x71E JUMP JUMPDEST PUSH1 0x40 MLOAD PUSH2 0x16E SWAP10 SWAP9 SWAP8 SWAP7 SWAP6 SWAP5 SWAP4 SWAP3 SWAP2 SWAP1 PUSH2 0x111D JUMP JUMPDEST PUSH1 0x40 MLOAD DUP1 SWAP2 SUB SWAP1 RETURN JUMPDEST PUSH2 0x191 PUSH1 0x4 DUP1 CALLDATASIZE SUB DUP2 ADD SWAP1 PUSH2 0x18C SWAP2 SWAP1 PUSH2 0x13DA JUMP JUMPDEST PUSH2 0x9EF JUMP JUMPDEST STOP JUMPDEST PUSH1 0x0 PUSH1 0x20 MSTORE DUP1 PUSH1 0x0 MSTORE PUSH1 0x40 PUSH1 0x0 KECCAK256 PUSH1 0x0 SWAP2 POP SWAP1 POP DUP1 PUSH1 0x0 ADD SLOAD SWAP1 DUP1 PUSH1 0x1 ADD DUP1 SLOAD PUSH2 0x1BC SWAP1 PUSH2 0x14D8 JUMP JUMPDEST DUP1 PUSH1 0x1F ADD PUSH1 0x20 DUP1 SWAP2 DIV MUL PUSH1 0x20 ADD PUSH1 0x40 MLOAD SWAP1 DUP2 ADD PUSH1 0x40 MSTORE DUP1 SWAP3 SWAP2 SWAP1 DUP2 DUP2 MSTORE PUSH1 0x20 ADD DUP3 DUP1 SLOAD PUSH2 0x1E8 SWAP1 PUSH2 0x14D8 JUMP JUMPDEST DUP1 ISZERO PUSH2 0x235 JUMPI DUP1 PUSH1 0x1F LT PUSH2 0x20A JUMPI PUSH2 0x100 DUP1 DUP4 SLOAD DIV MUL DUP4 MSTORE SWAP2 PUSH1 0x20 ADD SWAP2 PUSH2 0x235 JUMP JUMPDEST DUP3 ADD SWAP2 SWAP1 PUSH1 0x0 MSTORE PUSH1 0x20 PUSH1 0x0 KECCAK256 SWAP1 JUMPDEST DUP2 SLOAD DUP2 MSTORE SWAP1 PUSH1 0x1 ADD SWAP1 PUSH1 0x20 ADD DUP1 DUP4 GT PUSH2 0x218 JUMPI DUP3 SWAP1 SUB PUSH1 0x1F AND DUP3 ADD SWAP2 JUMPDEST POP POP POP POP POP SWAP1 DUP1 PUSH1 0x2 ADD DUP1 SLOAD PUSH2 0x24A SWAP1 PUSH2 0x14D8 JUMP JUMPDEST DUP1 PUSH1 0x1F ADD PUSH1 0x20 DUP1 SWAP2 DIV MUL PUSH1 0x20 ADD PUSH1 0x40 MLOAD SWAP1 DUP2 ADD PUSH1 0x40 MSTORE DUP1 SWAP3 SWAP2 SWAP1 DUP2 DUP2 MSTORE PUSH1 0x20 ADD DUP3 DUP1 SLOAD PUSH2 0x276 SWAP1 PUSH2 0x14D8 JUMP JUMPDEST DUP1 ISZERO PUSH2 0x2C3 JUMPI DUP1 PUSH1 0x1F LT PUSH2 0x298 JUMPI PUSH2 0x100 DUP1 DUP4 SLOAD DIV MUL DUP4 MSTORE SWAP2 PUSH1 0x20 ADD SWAP2 PUSH2 0x2C3 JUMP JUMPDEST DUP3 ADD SWAP2 SWAP1 PUSH1 0x0 MSTORE PUSH1 0x20 PUSH1 0x0 KECCAK256 SWAP1 JUMPDEST DUP2 SLOAD DUP2 MSTORE SWAP1 PUSH1 0x1 ADD SWAP1 PUSH1 0x20 ADD DUP1 DUP4 GT PUSH2 0x2A6 JUMPI DUP3 SWAP1 SUB PUSH1 0x1F AND DUP3 ADD SWAP2 JUMPDEST POP POP POP POP POP SWAP1 DUP1 PUSH1 0x3 ADD PUSH1 0x0 SWAP1 SLOAD SWAP1 PUSH2 0x100 EXP SWAP1 DIV PUSH20 0xFFFFFFFFFFFFFFFFFFFFFFFFFFFFFFFFFFFFFFFF AND SWAP1 DUP1 PUSH1 0x5 ADD SLOAD SWAP1 DUP1 PUSH1 0x6 ADD SLOAD SWAP1 DUP1 PUSH1 0xA ADD PUSH1 0x0 SWAP1 SLOAD SWAP1 PUSH2 0x100 EXP SWAP1 DIV PUSH1 0xFF AND SWAP1 DUP1 PUSH1 0xB ADD SLOAD SWAP1 POP DUP9 JUMP JUMPDEST PUSH1 0x1 SLOAD DUP2 JUMP JUMPDEST PUSH1 0x0 DUP1 PUSH1 0x0 DUP5 DUP2 MSTORE PUSH1 0x20 ADD SWAP1 DUP2 MSTORE PUSH1 0x20 ADD PUSH1 0x0 KECCAK256 SWAP1 POP DUP1 PUSH1 0x5 ADD SLOAD TIMESTAMP LT ISZERO PUSH2 0x37B JUMPI PUSH1 0x40 MLOAD PUSH32 0x8C379A000000000000000000000000000000000000000000000000000000000 DUP2 MSTORE PUSH1 0x4 ADD PUSH2 0x372 SWAP1 PUSH2 0x1555 JUMP JUMPDEST PUSH1 0x40 MLOAD DUP1 SWAP2 SUB SWAP1 REVERT JUMPDEST DUP1 PUSH1 0x6 ADD SLOAD TIMESTAMP GT ISZERO PUSH2 0x3C2 JUMPI PUSH1 0x40 MLOAD PUSH32 0x8C379A000000000000000000000000000000000000000000000000000000000 DUP2 MSTORE PUSH1 0x4 ADD PUSH2 0x3B9 SWAP1 PUSH2 0x15C1 JUMP JUMPDEST PUSH1 0x40 MLOAD DUP1 SWAP2 SUB SWAP1 REVERT JUMPDEST DUP1 PUSH1 0x7 ADD PUSH1 0x0 CALLER PUSH20 0xFFFFFFFFFFFFFFFFFFFFFFFFFFFFFFFFFFFFFFFF AND PUSH20 0xFFFFFFFFFFFFFFFFFFFFFFFFFFFFFFFFFFFFFFFF AND DUP2 MSTORE PUSH1 0x20 ADD SWAP1 DUP2 MSTORE PUSH1 0x20 ADD PUSH1 0x0 KECCAK256 PUSH1 0x0 SWAP1 SLOAD SWAP1 PUSH2 0x100 EXP SWAP1 DIV PUSH1 0xFF AND ISZERO PUSH2 0x451 JUMPI PUSH1 0x40 MLOAD PUSH32 0x8C379A000000000000000000000000000000000000000000000000000000000 DUP2 MSTORE PUSH1 0x4 ADD PUSH2 0x448 SWAP1 PUSH2 0x1653 JUMP JUMPDEST PUSH1 0x40 MLOAD DUP1 SWAP2 SUB SWAP1 REVERT JUMPDEST DUP1 PUSH1 0x4 ADD DUP1 SLOAD SWAP1 POP DUP3 LT PUSH2 0x49A JUMPI PUSH1 0x40 MLOAD PUSH32 0x8C379A000000000000000000000000000000000000000000000000000000000 DUP2 MSTORE PUSH1 0x4 ADD PUSH2 0x491 SWAP1 PUSH2 0x16BF JUMP JUMPDEST PUSH1 0x40 MLOAD DUP1 SWAP2 SUB SWAP1 REVERT JUMPDEST PUSH1 0x1 DUP2 PUSH1 0x7 ADD PUSH1 0x0 CALLER PUSH20 0xFFFFFFFFFFFFFFFFFFFFFFFFFFFFFFFFFFFFFFFF AND PUSH20 0xFFFFFFFFFFFFFFFFFFFFFFFFFFFFFFFFFFFFFFFF AND DUP2 MSTORE PUSH1 0x20 ADD SWAP1 DUP2 MSTORE PUSH1 0x20 ADD PUSH1 0x0 KECCAK256 PUSH1 0x0 PUSH2 0x100 EXP DUP2 SLOAD DUP2 PUSH1 0xFF MUL NOT AND SWAP1 DUP4 ISZERO ISZERO MUL OR SWAP1 SSTORE POP DUP2 DUP2 PUSH1 0x8 ADD PUSH1 0x0 CALLER PUSH20 0xFFFFFFFFFFFFFFFFFFFFFFFFFFFFFFFFFFFFFFFF AND PUSH20 0xFFFFFFFFFFFFFFFFFFFFFFFFFFFFFFFFFFFFFFFF AND DUP2 MSTORE PUSH1 0x20 ADD SWAP1 DUP2 MSTORE PUSH1 0x20 ADD PUSH1 0x0 KECCAK256 DUP2 SWAP1 SSTORE POP DUP1 PUSH1 0x9 ADD DUP3 DUP2 SLOAD DUP2 LT PUSH2 0x550 JUMPI PUSH2 0x54F PUSH2 0x16DF JUMP JUMPDEST JUMPDEST SWAP1 PUSH1 0x0 MSTORE PUSH1 0x20 PUSH1 0x0 KECCAK256 ADD PUSH1 0x0 DUP2 SLOAD DUP1 SWAP3 SWAP2 SWAP1 PUSH2 0x56B SWAP1 PUSH2 0x173D JUMP JUMPDEST SWAP2 SWAP1 POP SSTORE POP POP POP POP JUMP JUMPDEST PUSH1 0x0 DUP1 PUSH1 0x0 DUP4 DUP2 MSTORE PUSH1 0x20 ADD SWAP1 DUP2 MSTORE PUSH1 0x20 ADD PUSH1 0x0 KECCAK256 SWAP1 POP DUP1 PUSH1 0xA ADD PUSH1 0x0 SWAP1 SLOAD SWAP1 PUSH2 0x100 EXP SWAP1 DIV PUSH1 0xFF AND ISZERO PUSH2 0x5DD JUMPI PUSH1 0x40 MLOAD PUSH32 0x8C379A000000000000000000000000000000000000000000000000000000000 DUP2 MSTORE PUSH1 0x4 ADD PUSH2 0x5D4 SWAP1 PUSH2 0x17D1 JUMP JUMPDEST PUSH1 0x40 MLOAD DUP1 SWAP2 SUB SWAP1 REVERT JUMPDEST DUP1 PUSH1 0x6 ADD SLOAD TIMESTAMP GT PUSH2 0x623 JUMPI PUSH1 0x40 MLOAD PUSH32 0x8C379A000000000000000000000000000000000000000000000000000000000 DUP2 MSTORE PUSH1 0x4 ADD PUSH2 0x61A SWAP1 PUSH2 0x183D JUMP JUMPDEST PUSH1 0x40 MLOAD DUP1 SWAP2 SUB SWAP1 REVERT JUMPDEST PUSH1 0x1 DUP2 PUSH1 0xA ADD PUSH1 0x0 PUSH2 0x100 EXP DUP2 SLOAD DUP2 PUSH1 0xFF MUL NOT AND SWAP1 DUP4 ISZERO ISZERO MUL OR SWAP1 SSTORE POP PUSH1 0x1 NUMBER PUSH2 0x64D SWAP2 SWAP1 PUSH2 0x185D JUMP JUMPDEST BLOCKHASH DUP2 PUSH1 0xB ADD DUP2 SWAP1 SSTORE POP POP POP JUMP JUMPDEST PUSH1 0x60 PUSH1 0x0 DUP1 PUSH1 0x0 DUP5 DUP2 MSTORE PUSH1 0x20 ADD SWAP1 DUP2 MSTORE PUSH1 0x20 ADD PUSH1 0x0 KECCAK256 SWAP1 POP DUP1 PUSH1 0xA ADD PUSH1 0x0 SWAP1 SLOAD SWAP1 PUSH2 0x100 EXP SWAP1 DIV PUSH1 0xFF AND PUSH2 0x6C3 JUMPI PUSH1 0x40 MLOAD PUSH32 0x8C379A000000000000000000000000000000000000000000000000000000000 DUP2 MSTORE PUSH1 0x4 ADD PUSH2 0x6BA SWAP1 PUSH2 0x18DD JUMP JUMPDEST PUSH1 0x40 MLOAD DUP1 SWAP2 SUB SWAP1 REVERT JUMPDEST DUP1 PUSH1 0x9 ADD DUP1 SLOAD DUP1 PUSH1 0x20 MUL PUSH1 0x20 ADD PUSH1 0x40 MLOAD SWAP1 DUP2 ADD PUSH1 0x40 MSTORE DUP1 SWAP3 SWAP2 SWAP1 DUP2 DUP2 MSTORE PUSH1 0x20 ADD DUP3 DUP1 SLOAD DUP1 ISZERO PUSH2 0x711 JUMPI PUSH1 0x20 MUL DUP3 ADD SWAP2 SWAP1 PUSH1 0x0 MSTORE PUSH1 0x20 PUSH1 0x0 KECCAK256 SWAP1 JUMPDEST DUP2 SLOAD DUP2 MSTORE PUSH1 0x20 ADD SWAP1 PUSH1 0x1 ADD SWAP1 DUP1 DUP4 GT PUSH2 0x6FD JUMPI JUMPDEST POP POP POP POP POP SWAP2 POP POP SWAP2 SWAP1 POP JUMP JUMPDEST PUSH1 0x0 PUSH1 0x60 DUP1 PUSH1 0x0 PUSH1 0x60 PUSH1 0x0 DUP1 PUSH1 0x0 DUP1 PUSH1 0x0 DUP1 PUSH1 0x0 DUP13 DUP2 MSTORE PUSH1 0x20 ADD SWAP1 DUP2 MSTORE PUSH1 0x20 ADD PUSH1 0x0 KECCAK256 SWAP1 POP DUP1 PUSH1 0x0 ADD SLOAD DUP2 PUSH1 0x1 ADD DUP3 PUSH1 0x2 ADD DUP4 PUSH1 0x3 ADD PUSH1 0x0 SWAP1 SLOAD SWAP1 PUSH2 0x100 EXP SWAP1 DIV PUSH20 0xFFFFFFFFFFFFFFFFFFFFFFFFFFFFFFFFFFFFFFFF AND DUP5 PUSH1 0x4 ADD DUP6 PUSH1 0x5 ADD SLOAD DUP7 PUSH1 0x6 ADD SLOAD DUP8 PUSH1 0x7 ADD PUSH1 0x0 CALLER PUSH20 0xFFFFFFFFFFFFFFFFFFFFFFFFFFFFFFFFFFFFFFFF AND PUSH20 0xFFFFFFFFFFFFFFFFFFFFFFFFFFFFFFFFFFFFFFFF AND DUP2 MSTORE PUSH1 0x20 ADD SWAP1 DUP2 MSTORE PUSH1 0x20 ADD PUSH1 0x0 KECCAK256 PUSH1 0x0 SWAP1 SLOAD SWAP1 PUSH2 0x100 EXP SWAP1 DIV PUSH1 0xFF AND DUP9 PUSH1 0xA ADD PUSH1 0x0 SWAP1 SLOAD SWAP1 PUSH2 0x100 EXP SWAP1 DIV PUSH1 0xFF AND DUP8 DUP1 SLOAD PUSH2 0x7F0 SWAP1 PUSH2 0x14D8 JUMP JUMPDEST DUP1 PUSH1 0x1F ADD PUSH1 0x20 DUP1 SWAP2 DIV MUL PUSH1 0x20 ADD PUSH1 0x40 MLOAD SWAP1 DUP2 ADD PUSH1 0x40 MSTORE DUP1 SWAP3 SWAP2 SWAP1 DUP2 DUP2 MSTORE PUSH1 0x20 ADD DUP3 DUP1 SLOAD PUSH2 0x81C SWAP1 PUSH2 0x14D8 JUMP JUMPDEST DUP1 ISZERO PUSH2 0x869 JUMPI DUP1 PUSH1 0x1F LT PUSH2 0x83E JUMPI PUSH2 0x100 DUP1 DUP4 SLOAD DIV MUL DUP4 MSTORE SWAP2 PUSH1 0x20 ADD SWAP2 PUSH2 0x869 JUMP JUMPDEST DUP3 ADD SWAP2 SWAP1 PUSH1 0x0 MSTORE PUSH1 0x20 PUSH1 0x0 KECCAK256 SWAP1 JUMPDEST DUP2 SLOAD DUP2 MSTORE SWAP1 PUSH1 0x1 ADD SWAP1 PUSH1 0x20 ADD DUP1 DUP4 GT PUSH2 0x84C JUMPI DUP3 SWAP1 SUB PUSH1 0x1F AND DUP3 ADD SWAP2 JUMPDEST POP POP POP POP POP SWAP8 POP DUP7 DUP1 SLOAD PUSH2 0x87C SWAP1 PUSH2 0x14D8 JUMP JUMPDEST DUP1 PUSH1 0x1F ADD PUSH1 0x20 DUP1 SWAP2 DIV MUL PUSH1 0x20 ADD PUSH1 0x40 MLOAD SWAP1 DUP2 ADD PUSH1 0x40 MSTORE DUP1 SWAP3 SWAP2 SWAP1 DUP2 DUP2 MSTORE PUSH1 0x20 ADD DUP3 DUP1 SLOAD PUSH2 0x8A8 SWAP1 PUSH2 0x14D8 JUMP JUMPDEST DUP1 ISZERO PUSH2 0x8F5 JUMPI DUP1 PUSH1 0x1F LT PUSH2 0x8CA JUMPI PUSH2 0x100 DUP1 DUP4 SLOAD DIV MUL DUP4 MSTORE SWAP2 PUSH1 0x20 ADD SWAP2 PUSH2 0x8F5 JUMP JUMPDEST DUP3 ADD SWAP2 SWAP1 PUSH1 0x0 MSTORE PUSH1 0x20 PUSH1 0x0 KECCAK256 SWAP1 JUMPDEST DUP2 SLOAD DUP2 MSTORE SWAP1 PUSH1 0x1 ADD SWAP1 PUSH1 0x20 ADD DUP1 DUP4 GT PUSH2 0x8D8 JUMPI DUP3 SWAP1 SUB PUSH1 0x1F AND DUP3 ADD SWAP2 JUMPDEST POP POP POP POP POP SWAP7 POP DUP5 DUP1 SLOAD DUP1 PUSH1 0x20 MUL PUSH1 0x20 ADD PUSH1 0x40 MLOAD SWAP1 DUP2 ADD PUSH1 0x40 MSTORE DUP1 SWAP3 SWAP2 SWAP1 DUP2 DUP2 MSTORE PUSH1 0x20 ADD PUSH1 0x0 SWAP1 JUMPDEST DUP3 DUP3 LT ISZERO PUSH2 0x9C9 JUMPI DUP4 DUP3 SWAP1 PUSH1 0x0 MSTORE PUSH1 0x20 PUSH1 0x0 KECCAK256 ADD DUP1 SLOAD PUSH2 0x93C SWAP1 PUSH2 0x14D8 JUMP JUMPDEST DUP1 PUSH1 0x1F ADD PUSH1 0x20 DUP1 SWAP2 DIV MUL PUSH1 0x20 ADD PUSH1 0x40 MLOAD SWAP1 DUP2 ADD PUSH1 0x40 MSTORE DUP1 SWAP3 SWAP2 SWAP1 DUP2 DUP2 MSTORE PUSH1 0x20 ADD DUP3 DUP1 SLOAD PUSH2 0x968 SWAP1 PUSH2 0x14D8 JUMP JUMPDEST DUP1 ISZERO PUSH2 0x9B5 JUMPI DUP1 PUSH1 0x1F LT PUSH2 0x98A JUMPI PUSH2 0x100 DUP1 DUP4 SLOAD DIV MUL DUP4 MSTORE SWAP2 PUSH1 0x20 ADD SWAP2 PUSH2 0x9B5 JUMP JUMPDEST DUP3 ADD SWAP2 SWAP1 PUSH1 0x0 MSTORE PUSH1 0x20 PUSH1 0x0 KECCAK256 SWAP1 JUMPDEST DUP2 SLOAD DUP2 MSTORE SWAP1 PUSH1 0x1 ADD SWAP1 PUSH1 0x20 ADD DUP1 DUP4 GT PUSH2 0x998 JUMPI DUP3 SWAP1 SUB PUSH1 0x1F AND DUP3 ADD SWAP2 JUMPDEST POP POP POP POP POP DUP2 MSTORE PUSH1 0x20 ADD SWAP1 PUSH1 0x1 ADD SWAP1 PUSH2 0x91D JUMP JUMPDEST POP POP POP POP SWAP5 POP SWAP10 POP SWAP10 POP SWAP10 POP SWAP10 POP SWAP10 POP SWAP10 POP SWAP10 POP SWAP10 POP SWAP10 POP POP SWAP2 SWAP4 SWAP6 SWAP8 SWAP10 SWAP1 SWAP3 SWAP5 SWAP7 SWAP9 POP JUMP JUMPDEST PUSH1 0x0 DUP6 MLOAD GT DUP1 ISZERO PUSH2 0xA01 JUMPI POP PUSH1 0x0 DUP5 MLOAD GT JUMPDEST PUSH2 0xA40 JUMPI PUSH1 0x40 MLOAD PUSH32 0x8C379A000000000000000000000000000000000000000000000000000000000 DUP2 MSTORE PUSH1 0x4 ADD PUSH2 0xA37 SWAP1 PUSH2 0x196F JUMP JUMPDEST PUSH1 0x40 MLOAD DUP1 SWAP2 SUB SWAP1 REVERT JUMPDEST PUSH1 0x2 DUP4 MLOAD LT ISZERO PUSH2 0xA85 JUMPI PUSH1 0x40 MLOAD PUSH32 0x8C379A000000000000000000000000000000000000000000000000000000000 DUP2 MSTORE PUSH1 0x4 ADD PUSH2 0xA7C SWAP1 PUSH2 0x1A01 JUMP JUMPDEST PUSH1 0x40 MLOAD DUP1 SWAP2 SUB SWAP1 REVERT JUMPDEST DUP1 DUP3 LT PUSH2 0xAC7 JUMPI PUSH1 0x40 MLOAD PUSH32 0x8C379A000000000000000000000000000000000000000000000000000000000 DUP2 MSTORE PUSH1 0x4 ADD PUSH2 0xABE SWAP1 PUSH2 0x1A93 JUMP JUMPDEST PUSH1 0x40 MLOAD DUP1 SWAP2 SUB SWAP1 REVERT JUMPDEST TIMESTAMP DUP3 LT ISZERO PUSH2 0xB0A JUMPI PUSH1 0x40 MLOAD PUSH32 0x8C379A000000000000000000000000000000000000000000000000000000000 DUP2 MSTORE PUSH1 0x4 ADD PUSH2 0xB01 SWAP1 PUSH2 0x1AFF JUMP JUMPDEST PUSH1 0x40 MLOAD DUP1 SWAP2 SUB SWAP1 REVERT JUMPDEST PUSH1 0x0 DUP1 PUSH1 0x0 PUSH1 0x1 SLOAD DUP2 MSTORE PUSH1 0x20 ADD SWAP1 DUP2 MSTORE PUSH1 0x20 ADD PUSH1 0x0 KECCAK256 SWAP1 POP PUSH1 0x1 SLOAD DUP2 PUSH1 0x0 ADD DUP2 SWAP1 SSTORE POP DUP6 DUP2 PUSH1 0x1 ADD SWAP1 DUP2 PUSH2 0xB3E SWAP2 SWAP1 PUSH2 0x1CCB JUMP JUMPDEST POP DUP5 DUP2 PUSH1 0x2 ADD SWAP1 DUP2 PUSH2 0xB50 SWAP2 SWAP1 PUSH2 0x1CCB JUMP JUMPDEST POP CALLER DUP2 PUSH1 0x3 ADD PUSH1 0x0 PUSH2 0x100 EXP DUP2 SLOAD DUP2 PUSH20 0xFFFFFFFFFFFFFFFFFFFFFFFFFFFFFFFFFFFFFFFF MUL NOT AND SWAP1 DUP4 PUSH20 0xFFFFFFFFFFFFFFFFFFFFFFFFFFFFFFFFFFFFFFFF AND MUL OR SWAP1 SSTORE POP DUP3 DUP2 PUSH1 0x5 ADD DUP2 SWAP1 SSTORE POP DUP2 DUP2 PUSH1 0x6 ADD DUP2 SWAP1 SSTORE POP PUSH1 0x0 DUP2 PUSH1 0xA ADD PUSH1 0x0 PUSH2 0x100 EXP DUP2 SLOAD DUP2 PUSH1 0xFF MUL NOT AND SWAP1 DUP4 ISZERO ISZERO MUL OR SWAP1 SSTORE POP PUSH1 0x0 JUMPDEST DUP5 MLOAD DUP2 LT ISZERO PUSH2 0xC5F JUMPI DUP2 PUSH1 0x4 ADD DUP6 DUP3 DUP2 MLOAD DUP2 LT PUSH2 0xBE6 JUMPI PUSH2 0xBE5 PUSH2 0x16DF JUMP JUMPDEST JUMPDEST PUSH1 0x20 MUL PUSH1 0x20 ADD ADD MLOAD SWAP1 DUP1 PUSH1 0x1 DUP2 SLOAD ADD DUP1 DUP3 SSTORE DUP1 SWAP2 POP POP PUSH1 0x1 SWAP1 SUB SWAP1 PUSH1 0x0 MSTORE PUSH1 0x20 PUSH1 0x0 KECCAK256 ADD PUSH1 0x0 SWAP1 SWAP2 SWAP1 SWAP2 SWAP1 SWAP2 POP SWAP1 DUP2 PUSH2 0xC1F SWAP2 SWAP1 PUSH2 0x1CCB JUMP JUMPDEST POP DUP2 PUSH1 0x9 ADD PUSH1 0x0 SWAP1 DUP1 PUSH1 0x1 DUP2 SLOAD ADD DUP1 DUP3 SSTORE DUP1 SWAP2 POP POP PUSH1 0x1 SWAP1 SUB SWAP1 PUSH1 0x0 MSTORE PUSH1 0x20 PUSH1 0x0 KECCAK256 ADD PUSH1 0x0 SWAP1 SWAP2 SWAP1 SWAP2 SWAP1 SWAP2 POP SSTORE DUP1 DUP1 PUSH2 0xC57 SWAP1 PUSH2 0x173D JUMP JUMPDEST SWAP2 POP POP PUSH2 0xBC6 JUMP JUMPDEST POP PUSH1 0x1 PUSH1 0x0 DUP2 SLOAD DUP1 SWAP3 SWAP2 SWAP1 PUSH2 0xC73 SWAP1 PUSH2 0x173D JUMP JUMPDEST SWAP2 SWAP1 POP SSTORE POP PUSH32 0x7585F467599D0F008985F231AF99293BE388626AC16CA59505C2F8F88969CD63 DUP2 PUSH1 0x0 ADD SLOAD CALLER DUP9 PUSH1 0x40 MLOAD PUSH2 0xCAF SWAP4 SWAP3 SWAP2 SWAP1 PUSH2 0x1D9D JUMP JUMPDEST PUSH1 0x40 MLOAD DUP1 SWAP2 SUB SWAP1 LOG1 POP POP POP POP POP POP JUMP JUMPDEST PUSH1 0x0 PUSH1 0x40 MLOAD SWAP1 POP SWAP1 JUMP JUMPDEST PUSH1 0x0 DUP1 REVERT JUMPDEST PUSH1 0x0 DUP1 REVERT JUMPDEST PUSH1 0x0 DUP2 SWAP1 POP SWAP2 SWAP1 POP JUMP JUMPDEST PUSH2 0xCE6 DUP2 PUSH2 0xCD3 JUMP JUMPDEST DUP2 EQ PUSH2 0xCF1 JUMPI PUSH1 0x0 DUP1 REVERT JUMPDEST POP JUMP JUMPDEST PUSH1 0x0 DUP2 CALLDATALOAD SWAP1 POP PUSH2 0xD03 DUP2 PUSH2 0xCDD JUMP JUMPDEST SWAP3 SWAP2 POP POP JUMP JUMPDEST PUSH1 0x0 PUSH1 0x20 DUP3 DUP5 SUB SLT ISZERO PUSH2 0xD1F JUMPI PUSH2 0xD1E PUSH2 0xCC9 JUMP JUMPDEST JUMPDEST PUSH1 0x0 PUSH2 0xD2D DUP5 DUP3 DUP6 ADD PUSH2 0xCF4 JUMP JUMPDEST SWAP2 POP POP SWAP3 SWAP2 POP POP JUMP JUMPDEST PUSH2 0xD3F DUP2 PUSH2 0xCD3 JUMP JUMPDEST DUP3 MSTORE POP POP JUMP JUMPDEST PUSH1 0x0 DUP2 MLOAD SWAP1 POP SWAP2 SWAP1 POP JUMP JUMPDEST PUSH1 0x0 DUP3 DUP3 MSTORE PUSH1 0x20 DUP3 ADD SWAP1 POP SWAP3 SWAP2 POP POP JUMP JUMPDEST PUSH1 0x0 JUMPDEST DUP4 DUP2 LT ISZERO PUSH2 0xD7F JUMPI DUP1 DUP3 ADD MLOAD DUP2 DUP5 ADD MSTORE PUSH1 0x20 DUP2 ADD SWAP1 POP PUSH2 0xD64 JUMP JUMPDEST PUSH1 0x0 DUP5 DUP5 ADD MSTORE POP POP POP POP JUMP JUMPDEST PUSH1 0x0 PUSH1 0x1F NOT PUSH1 0x1F DUP4 ADD AND SWAP1 POP SWAP2 SWAP1 POP JUMP JUMPDEST PUSH1 0x0 PUSH2 0xDA7 DUP3 PUSH2 0xD45 JUMP JUMPDEST PUSH2 0xDB1 DUP2 DUP6 PUSH2 0xD50 JUMP JUMPDEST SWAP4 POP PUSH2 0xDC1 DUP2 DUP6 PUSH1 0x20 DUP7 ADD PUSH2 0xD61 JUMP JUMPDEST PUSH2 0xDCA DUP2 PUSH2 0xD8B JUMP JUMPDEST DUP5 ADD SWAP2 POP POP SWAP3 SWAP2 POP POP JUMP JUMPDEST PUSH1 0x0 PUSH20 0xFFFFFFFFFFFFFFFFFFFFFFFFFFFFFFFFFFFFFFFF DUP3 AND SWAP1 POP SWAP2 SWAP1 POP JUMP JUMPDEST PUSH1 0x0 PUSH2 0xE00 DUP3 PUSH2 0xDD5 JUMP JUMPDEST SWAP1 POP SWAP2 SWAP1 POP JUMP JUMPDEST PUSH2 0xE10 DUP2 PUSH2 0xDF5 JUMP JUMPDEST DUP3 MSTORE POP POP JUMP JUMPDEST PUSH1 0x0 DUP2 ISZERO ISZERO SWAP1 POP SWAP2 SWAP1 POP JUMP JUMPDEST PUSH2 0xE2B DUP2 PUSH2 0xE16 JUMP JUMPDEST DUP3 MSTORE POP POP JUMP JUMPDEST PUSH1 0x0 DUP2 SWAP1 POP SWAP2 SWAP1 POP JUMP JUMPDEST PUSH2 0xE44 DUP2 PUSH2 0xE31 JUMP JUMPDEST DUP3 MSTORE POP POP JUMP JUMPDEST PUSH1 0x0 PUSH2 0x100 DUP3 ADD SWAP1 POP PUSH2 0xE60 PUSH1 0x0 DUP4 ADD DUP12 PUSH2 0xD36 JUMP JUMPDEST DUP2 DUP2 SUB PUSH1 0x20 DUP4 ADD MSTORE PUSH2 0xE72 DUP2 DUP11 PUSH2 0xD9C JUMP JUMPDEST SWAP1 POP DUP2 DUP2 SUB PUSH1 0x40 DUP4 ADD MSTORE PUSH2 0xE86 DUP2 DUP10 PUSH2 0xD9C JUMP JUMPDEST SWAP1 POP PUSH2 0xE95 PUSH1 0x60 DUP4 ADD DUP9 PUSH2 0xE07 JUMP JUMPDEST PUSH2 0xEA2 PUSH1 0x80 DUP4 ADD DUP8 PUSH2 0xD36 JUMP JUMPDEST PUSH2 0xEAF PUSH1 0xA0 DUP4 ADD DUP7 PUSH2 0xD36 JUMP JUMPDEST PUSH2 0xEBC PUSH1 0xC0 DUP4 ADD DUP6 PUSH2 0xE22 JUMP JUMPDEST PUSH2 0xEC9 PUSH1 0xE0 DUP4 ADD DUP5 PUSH2 0xE3B JUMP JUMPDEST SWAP10 SWAP9 POP POP POP POP POP POP POP POP POP JUMP JUMPDEST PUSH1 0x0 PUSH1 0x20 DUP3 ADD SWAP1 POP PUSH2 0xEEB PUSH1 0x0 DUP4 ADD DUP5 PUSH2 0xD36 JUMP JUMPDEST SWAP3 SWAP2 POP POP JUMP JUMPDEST PUSH1 0x0 DUP1 PUSH1 0x40 DUP4 DUP6 SUB SLT ISZERO PUSH2 0xF08 JUMPI PUSH2 0xF07 PUSH2 0xCC9 JUMP JUMPDEST JUMPDEST PUSH1 0x0 PUSH2 0xF16 DUP6 DUP3 DUP7 ADD PUSH2 0xCF4 JUMP JUMPDEST SWAP3 POP POP PUSH1 0x20 PUSH2 0xF27 DUP6 DUP3 DUP7 ADD PUSH2 0xCF4 JUMP JUMPDEST SWAP2 POP POP SWAP3 POP SWAP3 SWAP1 POP JUMP JUMPDEST PUSH1 0x0 DUP2 MLOAD SWAP1 POP SWAP2 SWAP1 POP JUMP JUMPDEST PUSH1 0x0 DUP3 DUP3 MSTORE PUSH1 0x20 DUP3 ADD SWAP1 POP SWAP3 SWAP2 POP POP JUMP JUMPDEST PUSH1 0x0 DUP2 SWAP1 POP PUSH1 0x20 DUP3 ADD SWAP1 POP SWAP2 SWAP1 POP JUMP JUMPDEST PUSH2 0xF66 DUP2 PUSH2 0xCD3 JUMP JUMPDEST DUP3 MSTORE POP POP JUMP JUMPDEST PUSH1 0x0 PUSH2 0xF78 DUP4 DUP4 PUSH2 0xF5D JUMP JUMPDEST PUSH1 0x20 DUP4 ADD SWAP1 POP SWAP3 SWAP2 POP POP JUMP JUMPDEST PUSH1 0x0 PUSH1 0x20 DUP3 ADD SWAP1 POP SWAP2 SWAP1 POP JUMP JUMPDEST PUSH1 0x0 PUSH2 0xF9C DUP3 PUSH2 0xF31 JUMP JUMPDEST PUSH2 0xFA6 DUP2 DUP6 PUSH2 0xF3C JUMP JUMPDEST SWAP4 POP PUSH2 0xFB1 DUP4 PUSH2 0xF4D JUMP JUMPDEST DUP1 PUSH1 0x0 JUMPDEST DUP4 DUP2 LT ISZERO PUSH2 0xFE2 JUMPI DUP2 MLOAD PUSH2 0xFC9 DUP9 DUP3 PUSH2 0xF6C JUMP JUMPDEST SWAP8 POP PUSH2 0xFD4 DUP4 PUSH2 0xF84 JUMP JUMPDEST SWAP3 POP POP PUSH1 0x1 DUP2 ADD SWAP1 POP PUSH2 0xFB5 JUMP JUMPDEST POP DUP6 SWAP4 POP POP POP POP SWAP3 SWAP2 POP POP JUMP JUMPDEST PUSH1 0x0 PUSH1 0x20 DUP3 ADD SWAP1 POP DUP2 DUP2 SUB PUSH1 0x0 DUP4 ADD MSTORE PUSH2 0x1009 DUP2 DUP5 PUSH2 0xF91 JUMP JUMPDEST SWAP1 POP SWAP3 SWAP2 POP POP JUMP JUMPDEST PUSH1 0x0 DUP2 MLOAD SWAP1 POP SWAP2 SWAP1 POP JUMP JUMPDEST PUSH1 0x0 DUP3 DUP3 MSTORE PUSH1 0x20 DUP3 ADD SWAP1 POP SWAP3 SWAP2 POP POP JUMP JUMPDEST PUSH1 0x0 DUP2 SWAP1 POP PUSH1 0x20 DUP3 ADD SWAP1 POP SWAP2 SWAP1 POP JUMP JUMPDEST PUSH1 0x0 DUP3 DUP3 MSTORE PUSH1 0x20 DUP3 ADD SWAP1 POP SWAP3 SWAP2 POP POP JUMP JUMPDEST PUSH1 0x0 PUSH2 0x1059 DUP3 PUSH2 0xD45 JUMP JUMPDEST PUSH2 0x1063 DUP2 DUP6 PUSH2 0x103D JUMP JUMPDEST SWAP4 POP PUSH2 0x1073 DUP2 DUP6 PUSH1 0x20 DUP7 ADD PUSH2 0xD61 JUMP JUMPDEST PUSH2 0x107C DUP2 PUSH2 0xD8B JUMP JUMPDEST DUP5 ADD SWAP2 POP POP SWAP3 SWAP2 POP POP JUMP JUMPDEST PUSH1 0x0 PUSH2 0x1093 DUP4 DUP4 PUSH2 0x104E JUMP JUMPDEST SWAP1 POP SWAP3 SWAP2 POP POP JUMP JUMPDEST PUSH1 0x0 PUSH1 0x20 DUP3 ADD SWAP1 POP SWAP2 SWAP1 POP JUMP JUMPDEST PUSH1 0x0 PUSH2 0x10B3 DUP3 PUSH2 0x1011 JUMP JUMPDEST PUSH2 0x10BD DUP2 DUP6 PUSH2 0x101C JUMP JUMPDEST SWAP4 POP DUP4 PUSH1 0x20 DUP3 MUL DUP6 ADD PUSH2 0x10CF DUP6 PUSH2 0x102D JUMP JUMPDEST DUP1 PUSH1 0x0 JUMPDEST DUP6 DUP2 LT ISZERO PUSH2 0x110B JUMPI DUP5 DUP5 SUB DUP10 MSTORE DUP2 MLOAD PUSH2 0x10EC DUP6 DUP3 PUSH2 0x1087 JUMP JUMPDEST SWAP5 POP PUSH2 0x10F7 DUP4 PUSH2 0x109B JUMP JUMPDEST SWAP3 POP PUSH1 0x20 DUP11 ADD SWAP10 POP POP PUSH1 0x1 DUP2 ADD SWAP1 POP PUSH2 0x10D3 JUMP JUMPDEST POP DUP3 SWAP8 POP DUP8 SWAP6 POP POP POP POP POP POP SWAP3 SWAP2 POP POP JUMP JUMPDEST PUSH1 0x0 PUSH2 0x120 DUP3 ADD SWAP1 POP PUSH2 0x1133 PUSH1 0x0 DUP4 ADD DUP13 PUSH2 0xD36 JUMP JUMPDEST DUP2 DUP2 SUB PUSH1 0x20 DUP4 ADD MSTORE PUSH2 0x1145 DUP2 DUP12 PUSH2 0xD9C JUMP JUMPDEST SWAP1 POP DUP2 DUP2 SUB PUSH1 0x40 DUP4 ADD MSTORE PUSH2 0x1159 DUP2 DUP11 PUSH2 0xD9C JUMP JUMPDEST SWAP1 POP PUSH2 0x1168 PUSH1 0x60 DUP4 ADD DUP10 PUSH2 0xE07 JUMP JUMPDEST DUP2 DUP2 SUB PUSH1 0x80 DUP4 ADD MSTORE PUSH2 0x117A DUP2 DUP9 PUSH2 0x10A8 JUMP JUMPDEST SWAP1 POP PUSH2 0x1189 PUSH1 0xA0 DUP4 ADD DUP8 PUSH2 0xD36 JUMP JUMPDEST PUSH2 0x1196 PUSH1 0xC0 DUP4 ADD DUP7 PUSH2 0xD36 JUMP JUMPDEST PUSH2 0x11A3 PUSH1 0xE0 DUP4 ADD DUP6 PUSH2 0xE22 JUMP JUMPDEST PUSH2 0x11B1 PUSH2 0x100 DUP4 ADD DUP5 PUSH2 0xE22 JUMP JUMPDEST SWAP11 SWAP10 POP POP POP POP POP POP POP POP POP POP JUMP JUMPDEST PUSH1 0x0 DUP1 REVERT JUMPDEST PUSH1 0x0 DUP1 REVERT JUMPDEST PUSH32 0x4E487B7100000000000000000000000000000000000000000000000000000000 PUSH1 0x0 MSTORE PUSH1 0x41 PUSH1 0x4 MSTORE PUSH1 0x24 PUSH1 0x0 REVERT JUMPDEST PUSH2 0x1201 DUP3 PUSH2 0xD8B JUMP JUMPDEST DUP2 ADD DUP2 DUP2 LT PUSH8 0xFFFFFFFFFFFFFFFF DUP3 GT OR ISZERO PUSH2 0x1220 JUMPI PUSH2 0x121F PUSH2 0x11C9 JUMP JUMPDEST JUMPDEST DUP1 PUSH1 0x40 MSTORE POP POP POP JUMP JUMPDEST PUSH1 0x0 PUSH2 0x1233 PUSH2 0xCBF JUMP JUMPDEST SWAP1 POP PUSH2 0x123F DUP3 DUP3 PUSH2 0x11F8 JUMP JUMPDEST SWAP2 SWAP1 POP JUMP JUMPDEST PUSH1 0x0 PUSH8 0xFFFFFFFFFFFFFFFF DUP3 GT ISZERO PUSH2 0x125F JUMPI PUSH2 0x125E PUSH2 0x11C9 JUMP JUMPDEST JUMPDEST PUSH2 0x1268 DUP3 PUSH2 0xD8B JUMP JUMPDEST SWAP1 POP PUSH1 0x20 DUP2 ADD SWAP1 POP SWAP2 SWAP1 POP JUMP JUMPDEST DUP3 DUP2 DUP4 CALLDATACOPY PUSH1 0x0 DUP4 DUP4 ADD MSTORE POP POP POP JUMP JUMPDEST PUSH1 0x0 PUSH2 0x1297 PUSH2 0x1292 DUP5 PUSH2 0x1244 JUMP JUMPDEST PUSH2 0x1229 JUMP JUMPDEST SWAP1 POP DUP3 DUP2 MSTORE PUSH1 0x20 DUP2 ADD DUP5 DUP5 DUP5 ADD GT ISZERO PUSH2 0x12B3 JUMPI PUSH2 0x12B2 PUSH2 0x11C4 JUMP JUMPDEST JUMPDEST PUSH2 0x12BE DUP5 DUP3 DUP6 PUSH2 0x1275 JUMP JUMPDEST POP SWAP4 SWAP3 POP POP POP JUMP JUMPDEST PUSH1 0x0 DUP3 PUSH1 0x1F DUP4 ADD SLT PUSH2 0x12DB JUMPI PUSH2 0x12DA PUSH2 0x11BF JUMP JUMPDEST JUMPDEST DUP2 CALLDATALOAD PUSH2 0x12EB DUP5 DUP3 PUSH1 0x20 DUP7 ADD PUSH2 0x1284 JUMP JUMPDEST SWAP2 POP POP SWAP3 SWAP2 POP POP JUMP JUMPDEST PUSH1 0x0 PUSH8 0xFFFFFFFFFFFFFFFF DUP3 GT ISZERO PUSH2 0x130F JUMPI PUSH2 0x130E PUSH2 0x11C9 JUMP JUMPDEST JUMPDEST PUSH1 0x20 DUP3 MUL SWAP1 POP PUSH1 0x20 DUP2 ADD SWAP1 POP SWAP2 SWAP1 POP JUMP JUMPDEST PUSH1 0x0 DUP1 REVERT JUMPDEST PUSH1 0x0 PUSH2 0x1338 PUSH2 0x1333 DUP5 PUSH2 0x12F4 JUMP JUMPDEST PUSH2 0x1229 JUMP JUMPDEST SWAP1 POP DUP1 DUP4 DUP3 MSTORE PUSH1 0x20 DUP3 ADD SWAP1 POP PUSH1 0x20 DUP5 MUL DUP4 ADD DUP6 DUP2 GT ISZERO PUSH2 0x135B JUMPI PUSH2 0x135A PUSH2 0x1320 JUMP JUMPDEST JUMPDEST DUP4 JUMPDEST DUP2 DUP2 LT ISZERO PUSH2 0x13A2 JUMPI DUP1 CALLDATALOAD PUSH8 0xFFFFFFFFFFFFFFFF DUP2 GT ISZERO PUSH2 0x1380 JUMPI PUSH2 0x137F PUSH2 0x11BF JUMP JUMPDEST JUMPDEST DUP1 DUP7 ADD PUSH2 0x138D DUP10 DUP3 PUSH2 0x12C6 JUMP JUMPDEST DUP6 MSTORE PUSH1 0x20 DUP6 ADD SWAP5 POP POP POP PUSH1 0x20 DUP2 ADD SWAP1 POP PUSH2 0x135D JUMP JUMPDEST POP POP POP SWAP4 SWAP3 POP POP POP JUMP JUMPDEST PUSH1 0x0 DUP3 PUSH1 0x1F DUP4 ADD SLT PUSH2 0x13C1 JUMPI PUSH2 0x13C0 PUSH2 0x11BF JUMP JUMPDEST JUMPDEST DUP2 CALLDATALOAD PUSH2 0x13D1 DUP5 DUP3 PUSH1 0x20 DUP7 ADD PUSH2 0x1325 JUMP JUMPDEST SWAP2 POP POP SWAP3 SWAP2 POP POP JUMP JUMPDEST PUSH1 0x0 DUP1 PUSH1 0x0 DUP1 PUSH1 0x0 PUSH1 0xA0 DUP7 DUP9 SUB SLT ISZERO PUSH2 0x13F6 JUMPI PUSH2 0x13F5 PUSH2 0xCC9 JUMP JUMPDEST JUMPDEST PUSH1 0x0 DUP7 ADD CALLDATALOAD PUSH8 0xFFFFFFFFFFFFFFFF DUP2 GT ISZERO PUSH2 0x1414 JUMPI PUSH2 0x1413 PUSH2 0xCCE JUMP JUMPDEST JUMPDEST PUSH2 0x1420 DUP9 DUP3 DUP10 ADD PUSH2 0x12C6 JUMP JUMPDEST SWAP6 POP POP PUSH1 0x20 DUP7 ADD CALLDATALOAD PUSH8 0xFFFFFFFFFFFFFFFF DUP2 GT ISZERO PUSH2 0x1441 JUMPI PUSH2 0x1440 PUSH2 0xCCE JUMP JUMPDEST JUMPDEST PUSH2 0x144D DUP9 DUP3 DUP10 ADD PUSH2 0x12C6 JUMP JUMPDEST SWAP5 POP POP PUSH1 0x40 DUP7 ADD CALLDATALOAD PUSH8 0xFFFFFFFFFFFFFFFF DUP2 GT ISZERO PUSH2 0x146E JUMPI PUSH2 0x146D PUSH2 0xCCE JUMP JUMPDEST JUMPDEST PUSH2 0x147A DUP9 DUP3 DUP10 ADD PUSH2 0x13AC JUMP JUMPDEST SWAP4 POP POP PUSH1 0x60 PUSH2 0x148B DUP9 DUP3 DUP10 ADD PUSH2 0xCF4 JUMP JUMPDEST SWAP3 POP POP PUSH1 0x80 PUSH2 0x149C DUP9 DUP3 DUP10 ADD PUSH2 0xCF4 JUMP JUMPDEST SWAP2 POP POP SWAP3 SWAP6 POP SWAP3 SWAP6 SWAP1 SWAP4 POP JUMP JUMPDEST PUSH32 0x4E487B7100000000000000000000000000000000000000000000000000000000 PUSH1 0x0 MSTORE PUSH1 0x22 PUSH1 0x4 MSTORE PUSH1 0x24 PUSH1 0x0 REVERT JUMPDEST PUSH1 0x0 PUSH1 0x2 DUP3 DIV SWAP1 POP PUSH1 0x1 DUP3 AND DUP1 PUSH2 0x14F0 JUMPI PUSH1 0x7F DUP3 AND SWAP2 POP JUMPDEST PUSH1 0x20 DUP3 LT DUP2 SUB PUSH2 0x1503 JUMPI PUSH2 0x1502 PUSH2 0x14A9 JUMP JUMPDEST JUMPDEST POP SWAP2 SWAP1 POP JUMP JUMPDEST PUSH32 0x566F74696E6720706572696F6420686173206E6F742073746172746564000000 PUSH1 0x0 DUP3 ADD MSTORE POP JUMP JUMPDEST PUSH1 0x0 PUSH2 0x153F PUSH1 0x1D DUP4 PUSH2 0xD50 JUMP JUMPDEST SWAP2 POP PUSH2 0x154A DUP3 PUSH2 0x1509 JUMP JUMPDEST PUSH1 0x20 DUP3 ADD SWAP1 POP SWAP2 SWAP1 POP JUMP JUMPDEST PUSH1 0x0 PUSH1 0x20 DUP3 ADD SWAP1 POP DUP2 DUP2 SUB PUSH1 0x0 DUP4 ADD MSTORE PUSH2 0x156E DUP2 PUSH2 0x1532 JUMP JUMPDEST SWAP1 POP SWAP2 SWAP1 POP JUMP JUMPDEST PUSH32 0x566F74696E6720706572696F642068617320656E646564000000000000000000 PUSH1 0x0 DUP3 ADD MSTORE POP JUMP JUMPDEST PUSH1 0x0 PUSH2 0x15AB PUSH1 0x17 DUP4 PUSH2 0xD50 JUMP JUMPDEST SWAP2 POP PUSH2 0x15B6 DUP3 PUSH2 0x1575 JUMP JUMPDEST PUSH1 0x20 DUP3 ADD SWAP1 POP SWAP2 SWAP1 POP JUMP JUMPDEST PUSH1 0x0 PUSH1 0x20 DUP3 ADD SWAP1 POP DUP2 DUP2 SUB PUSH1 0x0 DUP4 ADD MSTORE PUSH2 0x15DA DUP2 PUSH2 0x159E JUMP JUMPDEST SWAP1 POP SWAP2 SWAP1 POP JUMP JUMPDEST PUSH32 0x596F75206861766520616C726561647920766F746564206F6E20746869732070 PUSH1 0x0 DUP3 ADD MSTORE PUSH32 0x726F706F73616C00000000000000000000000000000000000000000000000000 PUSH1 0x20 DUP3 ADD MSTORE POP JUMP JUMPDEST PUSH1 0x0 PUSH2 0x163D PUSH1 0x27 DUP4 PUSH2 0xD50 JUMP JUMPDEST SWAP2 POP PUSH2 0x1648 DUP3 PUSH2 0x15E1 JUMP JUMPDEST PUSH1 0x40 DUP3 ADD SWAP1 POP SWAP2 SWAP1 POP JUMP JUMPDEST PUSH1 0x0 PUSH1 0x20 DUP3 ADD SWAP1 POP DUP2 DUP2 SUB PUSH1 0x0 DUP4 ADD MSTORE PUSH2 0x166C DUP2 PUSH2 0x1630 JUMP JUMPDEST SWAP1 POP SWAP2 SWAP1 POP JUMP JUMPDEST PUSH32 0x496E76616C696420766F74652063686F69636500000000000000000000000000 PUSH1 0x0 DUP3 ADD MSTORE POP JUMP JUMPDEST PUSH1 0x0 PUSH2 0x16A9 PUSH1 0x13 DUP4 PUSH2 0xD50 JUMP JUMPDEST SWAP2 POP PUSH2 0x16B4 DUP3 PUSH2 0x1673 JUMP JUMPDEST PUSH1 0x20 DUP3 ADD SWAP1 POP SWAP2 SWAP1 POP JUMP JUMPDEST PUSH1 0x0 PUSH1 0x20 DUP3 ADD SWAP1 POP DUP2 DUP2 SUB PUSH1 0x0 DUP4 ADD MSTORE PUSH2 0x16D8 DUP2 PUSH2 0x169C JUMP JUMPDEST SWAP1 POP SWAP2 SWAP1 POP JUMP JUMPDEST PUSH32 0x4E487B7100000000000000000000000000000000000000000000000000000000 PUSH1 0x0 MSTORE PUSH1 0x32 PUSH1 0x4 MSTORE PUSH1 0x24 PUSH1 0x0 REVERT JUMPDEST PUSH32 0x4E487B7100000000000000000000000000000000000000000000000000000000 PUSH1 0x0 MSTORE PUSH1 0x11 PUSH1 0x4 MSTORE PUSH1 0x24 PUSH1 0x0 REVERT JUMPDEST PUSH1 0x0 PUSH2 0x1748 DUP3 PUSH2 0xCD3 JUMP JUMPDEST SWAP2 POP PUSH32 0xFFFFFFFFFFFFFFFFFFFFFFFFFFFFFFFFFFFFFFFFFFFFFFFFFFFFFFFFFFFFFFFF DUP3 SUB PUSH2 0x177A JUMPI PUSH2 0x1779 PUSH2 0x170E JUMP JUMPDEST JUMPDEST PUSH1 0x1 DUP3 ADD SWAP1 POP SWAP2 SWAP1 POP JUMP JUMPDEST PUSH32 0x54616C6C792068617320616C7265616479206265656E20636F6D706C65746564 PUSH1 0x0 DUP3 ADD MSTORE POP JUMP JUMPDEST PUSH1 0x0 PUSH2 0x17BB PUSH1 0x20 DUP4 PUSH2 0xD50 JUMP JUMPDEST SWAP2 POP PUSH2 0x17C6 DUP3 PUSH2 0x1785 JUMP JUMPDEST PUSH1 0x20 DUP3 ADD SWAP1 POP SWAP2 SWAP1 POP JUMP JUMPDEST PUSH1 0x0 PUSH1 0x20 DUP3 ADD SWAP1 POP DUP2 DUP2 SUB PUSH1 0x0 DUP4 ADD MSTORE PUSH2 0x17EA DUP2 PUSH2 0x17AE JUMP JUMPDEST SWAP1 POP SWAP2 SWAP1 POP JUMP JUMPDEST PUSH32 0x566F74696E6720706572696F64206973206E6F74206F76657220796574000000 PUSH1 0x0 DUP3 ADD MSTORE POP JUMP JUMPDEST PUSH1 0x0 PUSH2 0x1827 PUSH1 0x1D DUP4 PUSH2 0xD50 JUMP JUMPDEST SWAP2 POP PUSH2 0x1832 DUP3 PUSH2 0x17F1 JUMP JUMPDEST PUSH1 0x20 DUP3 ADD SWAP1 POP SWAP2 SWAP1 POP JUMP JUMPDEST PUSH1 0x0 PUSH1 0x20 DUP3 ADD SWAP1 POP DUP2 DUP2 SUB PUSH1 0x0 DUP4 ADD MSTORE PUSH2 0x1856 DUP2 PUSH2 0x181A JUMP JUMPDEST SWAP1 POP SWAP2 SWAP1 POP JUMP JUMPDEST PUSH1 0x0 PUSH2 0x1868 DUP3 PUSH2 0xCD3 JUMP JUMPDEST SWAP2 POP PUSH2 0x1873 DUP4 PUSH2 0xCD3 JUMP JUMPDEST SWAP3 POP DUP3 DUP3 SUB SWAP1 POP DUP2 DUP2 GT ISZERO PUSH2 0x188B JUMPI PUSH2 0x188A PUSH2 0x170E JUMP JUMPDEST JUMPDEST SWAP3 SWAP2 POP POP JUMP JUMPDEST PUSH32 0x54616C6C79206973206E6F742079657420636F6D706C65746564000000000000 PUSH1 0x0 DUP3 ADD MSTORE POP JUMP JUMPDEST PUSH1 0x0 PUSH2 0x18C7 PUSH1 0x1A DUP4 PUSH2 0xD50 JUMP JUMPDEST SWAP2 POP PUSH2 0x18D2 DUP3 PUSH2 0x1891 JUMP JUMPDEST PUSH1 0x20 DUP3 ADD SWAP1 POP SWAP2 SWAP1 POP JUMP JUMPDEST PUSH1 0x0 PUSH1 0x20 DUP3 ADD SWAP1 POP DUP2 DUP2 SUB PUSH1 0x0 DUP4 ADD MSTORE PUSH2 0x18F6 DUP2 PUSH2 0x18BA JUMP JUMPDEST SWAP1 POP SWAP2 SWAP1 POP JUMP JUMPDEST PUSH32 0x5469746C6520616E64206465736372697074696F6E2063616E6E6F7420626520 PUSH1 0x0 DUP3 ADD MSTORE PUSH32 0x656D707479000000000000000000000000000000000000000000000000000000 PUSH1 0x20 DUP3 ADD MSTORE POP JUMP JUMPDEST PUSH1 0x0 PUSH2 0x1959 PUSH1 0x25 DUP4 PUSH2 0xD50 JUMP JUMPDEST SWAP2 POP PUSH2 0x1964 DUP3 PUSH2 0x18FD JUMP JUMPDEST PUSH1 0x40 DUP3 ADD SWAP1 POP SWAP2 SWAP1 POP JUMP JUMPDEST PUSH1 0x0 PUSH1 0x20 DUP3 ADD SWAP1 POP DUP2 DUP2 SUB PUSH1 0x0 DUP4 ADD MSTORE PUSH2 0x1988 DUP2 PUSH2 0x194C JUMP JUMPDEST SWAP1 POP SWAP2 SWAP1 POP JUMP JUMPDEST PUSH32 0x4D7573742068617665206174206C656173742074776F20766F74696E67206F70 PUSH1 0x0 DUP3 ADD MSTORE PUSH32 0x74696F6E73000000000000000000000000000000000000000000000000000000 PUSH1 0x20 DUP3 ADD MSTORE POP JUMP JUMPDEST PUSH1 0x0 PUSH2 0x19EB PUSH1 0x25 DUP4 PUSH2 0xD50 JUMP JUMPDEST SWAP2 POP PUSH2 0x19F6 DUP3 PUSH2 0x198F JUMP JUMPDEST PUSH1 0x40 DUP3 ADD SWAP1 POP SWAP2 SWAP1 POP JUMP JUMPDEST PUSH1 0x0 PUSH1 0x20 DUP3 ADD SWAP1 POP DUP2 DUP2 SUB PUSH1 0x0 DUP4 ADD MSTORE PUSH2 0x1A1A DUP2 PUSH2 0x19DE JUMP JUMPDEST SWAP1 POP SWAP2 SWAP1 POP JUMP JUMPDEST PUSH32 0x456E642074696D65206D7573742062652061667465722073746172742074696D PUSH1 0x0 DUP3 ADD MSTORE PUSH32 0x6500000000000000000000000000000000000000000000000000000000000000 PUSH1 0x20 DUP3 ADD MSTORE POP JUMP JUMPDEST PUSH1 0x0 PUSH2 0x1A7D PUSH1 0x21 DUP4 PUSH2 0xD50 JUMP JUMPDEST SWAP2 POP PUSH2 0x1A88 DUP3 PUSH2 0x1A21 JUMP JUMPDEST PUSH1 0x40 DUP3 ADD SWAP1 POP SWAP2 SWAP1 POP JUMP JUMPDEST PUSH1 0x0 PUSH1 0x20 DUP3 ADD SWAP1 POP DUP2 DUP2 SUB PUSH1 0x0 DUP4 ADD MSTORE PUSH2 0x1AAC DUP2 PUSH2 0x1A70 JUMP JUMPDEST SWAP1 POP SWAP2 SWAP1 POP JUMP JUMPDEST PUSH32 0x53746172742074696D65206D75737420626520696E2074686520667574757265 PUSH1 0x0 DUP3 ADD MSTORE POP JUMP JUMPDEST PUSH1 0x0 PUSH2 0x1AE9 PUSH1 0x20 DUP4 PUSH2 0xD50 JUMP JUMPDEST SWAP2 POP PUSH2 0x1AF4 DUP3 PUSH2 0x1AB3 JUMP JUMPDEST PUSH1 0x20 DUP3 ADD SWAP1 POP SWAP2 SWAP1 POP JUMP JUMPDEST PUSH1 0x0 PUSH1 0x20 DUP3 ADD SWAP1 POP DUP2 DUP2 SUB PUSH1 0x0 DUP4 ADD MSTORE PUSH2 0x1B18 DUP2 PUSH2 0x1ADC JUMP JUMPDEST SWAP1 POP SWAP2 SWAP1 POP JUMP JUMPDEST PUSH1 0x0 DUP2 SWAP1 POP DUP2 PUSH1 0x0 MSTORE PUSH1 0x20 PUSH1 0x0 KECCAK256 SWAP1 POP SWAP2 SWAP1 POP JUMP JUMPDEST PUSH1 0x0 PUSH1 0x20 PUSH1 0x1F DUP4 ADD DIV SWAP1 POP SWAP2 SWAP1 POP JUMP JUMPDEST PUSH1 0x0 DUP3 DUP3 SHL SWAP1 POP SWAP3 SWAP2 POP POP JUMP JUMPDEST PUSH1 0x0 PUSH1 0x8 DUP4 MUL PUSH2 0x1B81 PUSH32 0xFFFFFFFFFFFFFFFFFFFFFFFFFFFFFFFFFFFFFFFFFFFFFFFFFFFFFFFFFFFFFFFF DUP3 PUSH2 0x1B44 JUMP JUMPDEST PUSH2 0x1B8B DUP7 DUP4 PUSH2 0x1B44 JUMP JUMPDEST SWAP6 POP DUP1 NOT DUP5 AND SWAP4 POP DUP1 DUP7 AND DUP5 OR SWAP3 POP POP POP SWAP4 SWAP3 POP POP POP JUMP JUMPDEST PUSH1 0x0 DUP2 SWAP1 POP SWAP2 SWAP1 POP JUMP JUMPDEST PUSH1 0x0 PUSH2 0x1BC8 PUSH2 0x1BC3 PUSH2 0x1BBE DUP5 PUSH2 0xCD3 JUMP JUMPDEST PUSH2 0x1BA3 JUMP JUMPDEST PUSH2 0xCD3 JUMP JUMPDEST SWAP1 POP SWAP2 SWAP1 POP JUMP JUMPDEST PUSH1 0x0 DUP2 SWAP1 POP SWAP2 SWAP1 POP JUMP JUMPDEST PUSH2 0x1BE2 DUP4 PUSH2 0x1BAD JUMP JUMPDEST PUSH2 0x1BF6 PUSH2 0x1BEE DUP3 PUSH2 0x1BCF JUMP JUMPDEST DUP5 DUP5 SLOAD PUSH2 0x1B51 JUMP JUMPDEST DUP3 SSTORE POP POP POP POP JUMP JUMPDEST PUSH1 0x0 SWAP1 JUMP JUMPDEST PUSH2 0x1C0B PUSH2 0x1BFE JUMP JUMPDEST PUSH2 0x1C16 DUP2 DUP5 DUP5 PUSH2 0x1BD9 JUMP JUMPDEST POP POP POP JUMP JUMPDEST JUMPDEST DUP2 DUP2 LT ISZERO PUSH2 0x1C3A JUMPI PUSH2 0x1C2F PUSH1 0x0 DUP3 PUSH2 0x1C03 JUMP JUMPDEST PUSH1 0x1 DUP2 ADD SWAP1 POP PUSH2 0x1C1C JUMP JUMPDEST POP POP JUMP JUMPDEST PUSH1 0x1F DUP3 GT ISZERO PUSH2 0x1C7F JUMPI PUSH2 0x1C50 DUP2 PUSH2 0x1B1F JUMP JUMPDEST PUSH2 0x1C59 DUP5 PUSH2 0x1B34 JUMP JUMPDEST DUP2 ADD PUSH1 0x20 DUP6 LT ISZERO PUSH2 0x1C68 JUMPI DUP2 SWAP1 POP JUMPDEST PUSH2 0x1C7C PUSH2 0x1C74 DUP6 PUSH2 0x1B34 JUMP JUMPDEST DUP4 ADD DUP3 PUSH2 0x1C1B JUMP JUMPDEST POP POP JUMPDEST POP POP POP JUMP JUMPDEST PUSH1 0x0 DUP3 DUP3 SHR SWAP1 POP SWAP3 SWAP2 POP POP JUMP JUMPDEST PUSH1 0x0 PUSH2 0x1CA2 PUSH1 0x0 NOT DUP5 PUSH1 0x8 MUL PUSH2 0x1C84 JUMP JUMPDEST NOT DUP1 DUP4 AND SWAP2 POP POP SWAP3 SWAP2 POP POP JUMP JUMPDEST PUSH1 0x0 PUSH2 0x1CBB DUP4 DUP4 PUSH2 0x1C91 JUMP JUMPDEST SWAP2 POP DUP3 PUSH1 0x2 MUL DUP3 OR SWAP1 POP SWAP3 SWAP2 POP POP JUMP JUMPDEST PUSH2 0x1CD4 DUP3 PUSH2 0xD45 JUMP JUMPDEST PUSH8 0xFFFFFFFFFFFFFFFF DUP2 GT ISZERO PUSH2 0x1CED JUMPI PUSH2 0x1CEC PUSH2 0x11C9 JUMP JUMPDEST JUMPDEST PUSH2 0x1CF7 DUP3 SLOAD PUSH2 0x14D8 JUMP JUMPDEST PUSH2 0x1D02 DUP3 DUP3 DUP6 PUSH2 0x1C3E JUMP JUMPDEST PUSH1 0x0 PUSH1 0x20 SWAP1 POP PUSH1 0x1F DUP4 GT PUSH1 0x1 DUP2 EQ PUSH2 0x1D35 JUMPI PUSH1 0x0 DUP5 ISZERO PUSH2 0x1D23 JUMPI DUP3 DUP8 ADD MLOAD SWAP1 POP JUMPDEST PUSH2 0x1D2D DUP6 DUP3 PUSH2 0x1CAF JUMP JUMPDEST DUP7 SSTORE POP PUSH2 0x1D95 JUMP JUMPDEST PUSH1 0x1F NOT DUP5 AND PUSH2 0x1D43 DUP7 PUSH2 0x1B1F JUMP JUMPDEST PUSH1 0x0 JUMPDEST DUP3 DUP2 LT ISZERO PUSH2 0x1D6B JUMPI DUP5 DUP10 ADD MLOAD DUP3 SSTORE PUSH1 0x1 DUP3 ADD SWAP2 POP PUSH1 0x20 DUP6 ADD SWAP5 POP PUSH1 0x20 DUP2 ADD SWAP1 POP PUSH2 0x1D46 JUMP JUMPDEST DUP7 DUP4 LT ISZERO PUSH2 0x1D88 JUMPI DUP5 DUP10 ADD MLOAD PUSH2 0x1D84 PUSH1 0x1F DUP10 AND DUP3 PUSH2 0x1C91 JUMP JUMPDEST DUP4 SSTORE POP JUMPDEST PUSH1 0x1 PUSH1 0x2 DUP9 MUL ADD DUP9 SSTORE POP POP POP JUMPDEST POP POP POP POP POP POP JUMP JUMPDEST PUSH1 0x0 PUSH1 0x60 DUP3 ADD SWAP1 POP PUSH2 0x1DB2 PUSH1 0x0 DUP4 ADD DUP7 PUSH2 0xD36 JUMP JUMPDEST PUSH2 0x1DBF PUSH1 0x20 DUP4 ADD DUP6 PUSH2 0xE07 JUMP JUMPDEST DUP2 DUP2 SUB PUSH1 0x40 DUP4 ADD MSTORE PUSH2 0x1DD1 DUP2 DUP5 PUSH2 0xD9C JUMP JUMPDEST SWAP1 POP SWAP5 SWAP4 POP POP POP POP JUMP INVALID LOG2 PUSH5 0x6970667358 0x22 SLT KECCAK256 GAS 0xE2 SMOD 0x28 CALLCODE 0xAA CALL ADDRESS 0xDD 0xF7 0xB1 SELFBALANCE 0xDF PUSH22 0x98C6C1CEEDC2152B1FDFDA078DBB6FC73D8564736F6C PUSH4 0x43000811 STOP CALLER "},"methodIdentifiers":{"castVote(uint256,uint256)":"2c0a3f89","createProposal(string,string,string[],uint256,uint256)":"ca21fe66","getProposal(uint256)":"c7f758a8","getResults(uint256)":"81a60c0d","nextProposalId()":"2ab09d14","proposals(uint256)":"013cf08b","tallyVotes(uint256)":"4d318b0e"}}}}}