{
  "_format": "hh-sol-artifact-1",
  "contractName": "VoteSafe",
  "sourceName": "contracts/VoteSafe.sol",
  "abi": [
    {
      "anonymous": false,
      "inputs": [
        {
          "indexed": false,
          "internalType": "uint256",
          "name": "proposalId",
          "type": "uint256"
        },
        {
          "indexed": false,
          "internalType": "address",
          "name": "creator",
          "type": "address"
        },
        {
          "indexed": false,
          "internalType": "string",
          "name": "title",
          "type": "string"
        }
      ],
      "name": "ProposalCreated",
      "type": "event"
    },
    {
      "inputs": [
        {
          "internalType": "uint256",
          "name": "_proposalId",
          "type": "uint256"
        },
        {
          "internalType": "uint256",
          "name": "_voteChoice",
          "type": "uint256"
        }
      ],
      "name": "castVote",
      "outputs": [],
      "stateMutability": "nonpayable",
      "type": "function"
    },
    {
      "inputs": [
        {
          "internalType": "string",
          "name": "_title",
          "type": "string"
        },
        {
          "internalType": "string",
          "name": "_description",
          "type": "string"
        },
        {
          "internalType": "string[]",
          "name": "_options",
          "type": "string[]"
        },
        {
          "internalType": "uint256",
          "name": "_startTime",
          "type": "uint256"
        },
        {
          "internalType": "uint256",
          "name": "_endTime",
          "type": "uint256"
        }
      ],
      "name": "createProposal",
      "outputs": [],
      "stateMutability": "nonpayable",
      "type": "function"
    },
    {
      "inputs": [
        {
          "internalType": "uint256",
          "name": "_proposalId",
          "type": "uint256"
        }
      ],
      "name": "getProposal",
      "outputs": [
        {
          "internalType": "uint256",
          "name": "id",
          "type": "uint256"
        },
        {
          "internalType": "string",
          "name": "title",
          "type": "string"
        },
        {
          "internalType": "string",
          "name": "description",
          "type": "string"
        },
        {
          "internalType": "address",
          "name": "creator",
          "type": "address"
        },
        {
          "internalType": "string[]",
          "name": "votingOptions",
          "type": "string[]"
        },
        {
          "internalType": "uint256",
          "name": "startTime",
          "type": "uint256"
        },
        {
          "internalType": "uint256",
          "name": "endTime",
          "type": "uint256"
        },
        {
          "internalType": "bool",
          "name": "hasVoted",
          "type": "bool"
        },
        {
          "internalType": "bool",
          "name": "isTallyDone",
          "type": "bool"
        }
      ],
      "stateMutability": "view",
      "type": "function"
    },
    {
      "inputs": [
        {
          "internalType": "uint256",
          "name": "_proposalId",
          "type": "uint256"
        }
      ],
      "name": "getResults",
      "outputs": [
        {
          "internalType": "uint256[]",
          "name": "counts",
          "type": "uint256[]"
        }
      ],
      "stateMutability": "view",
      "type": "function"
    },
    {
      "inputs": [],
      "name": "nextProposalId",
      "outputs": [
        {
          "internalType": "uint256",
          "name": "",
          "type": "uint256"
        }
      ],
      "stateMutability": "view",
      "type": "function"
    },
    {
      "inputs": [
        {
          "internalType": "uint256",
          "name": "",
          "type": "uint256"
        }
      ],
      "name": "proposals",
      "outputs": [
        {
          "internalType": "uint256",
          "name": "id",
          "type": "uint256"
        },
        {
          "internalType": "string",
          "name": "title",
          "type": "string"
        },
        {
          "internalType": "string",
          "name": "description",
          "type": "string"
        },
        {
          "internalType": "address",
          "name": "creator",
          "type": "address"
        },
        {
          "internalType": "uint256",
          "name": "startTime",
          "type": "uint256"
        },
        {
          "internalType": "uint256",
          "name": "endTime",
          "type": "uint256"
        },
        {
          "internalType": "bool",
          "name": "isTallyDone",
          "type": "bool"
        },
        {
          "internalType": "bytes32",
          "name": "tallyTxHash",
          "type": "bytes32"
        }
      ],
      "stateMutability": "view",
      "type": "function"
    },
    {
      "inputs": [
        {
          "internalType": "uint256",
          "name": "_proposalId",
          "type": "uint256"
        }
      ],
      "name": "tallyVotes",
      "outputs": [],
      "stateMutability": "nonpayable",
      "type": "function"
    }
  ],
  "bytecode": "0x6080604052600060015534801561001557600080fd5b50611e11806100256000396000f3fe608060405234801561001057600080fd5b506004361061007d5760003560e01c80634d318b0e1161005b5780634d318b0e146100f357806381a60c0d1461010f578063c7f758a81461013f578063ca21fe66146101775761007d565b8063013cf08b146100825780632ab09d14146100b95780632c0a3f89146100d7575b600080fd5b61009c60048036038101906100979190610d09565b610193565b6040516100b0989796959493929190610e4a565b60405180910390f35b6100c1610318565b6040516100ce9190610ed6565b60405180910390f35b6100f160048036038101906100ec9190610ef1565b61031e565b005b61010d60048036038101906101089190610d09565b610575565b005b61012960048036038101906101249190610d09565b61065a565b6040516101369190610fef565b60405180910390f35b61015960048036038101906101549190610d09565b61071e565b60405161016e9998979695949392919061111d565b60405180910390f35b610191600480360381019061018c91906113da565b6109ef565b005b60006020528060005260406000206000915090508060000154908060010180546101bc906114d8565b80601f01602080910402602001604051908101604052809291908181526020018280546101e8906114d8565b80156102355780601f1061020a57610100808354040283529160200191610235565b820191906000526020600020905b81548152906001019060200180831161021857829003601f168201915b50505050509080600201805461024a906114d8565b80601f0160208091040260200160405190810160405280929190818152602001828054610276906114d8565b80156102c35780601f10610298576101008083540402835291602001916102c3565b820191906000526020600020905b8154815290600101906020018083116102a657829003601f168201915b5050505050908060030160009054906101000a900473ffffffffffffffffffffffffffffffffffffffff169080600501549080600601549080600a0160009054906101000a900460ff169080600b0154905088565b60015481565b60008060008481526020019081526020016000209050806005015442101561037b576040517f08c379a000000000000000000000000000000000000000000000000000000000815260040161037290611555565b60405180910390fd5b80600601544211156103c2576040517f08c379a00000000000000000000000000000000000000000000000000000000081526004016103b9906115c1565b60405180910390fd5b8060070160003373ffffffffffffffffffffffffffffffffffffffff1673ffffffffffffffffffffffffffffffffffffffff16815260200190815260200160002060009054906101000a900460ff1615610451576040517f08c379a000000000000000000000000000000000000000000000000000000000815260040161044890611653565b60405180910390fd5b8060040180549050821061049a576040517f08c379a0000000000000000000000000000000000000000000000000000000008152600401610491906116bf565b60405180910390fd5b60018160070160003373ffffffffffffffffffffffffffffffffffffffff1673ffffffffffffffffffffffffffffffffffffffff16815260200190815260200160002060006101000a81548160ff021916908315150217905550818160080160003373ffffffffffffffffffffffffffffffffffffffff1673ffffffffffffffffffffffffffffffffffffffff168152602001908152602001600020819055508060090182815481106105505761054f6116df565b5b90600052602060002001600081548092919061056b9061173d565b9190505550505050565b6000806000838152602001908152602001600020905080600a0160009054906101000a900460ff16156105dd576040517f08c379a00000000000000000000000000000000000000000000000000000000081526004016105d4906117d1565b60405180910390fd5b80600601544211610623576040517f08c379a000000000000000000000000000000000000000000000000000000000815260040161061a9061183d565b60405180910390fd5b600181600a0160006101000a81548160ff02191690831515021790555060014361064d919061185d565b4081600b01819055505050565b60606000806000848152602001908152602001600020905080600a0160009054906101000a900460ff166106c3576040517f08c379a00000000000000000000000000000000000000000000000000000000081526004016106ba906118dd565b60405180910390fd5b8060090180548060200260200160405190810160405280929190818152602001828054801561071157602002820191906000526020600020905b8154815260200190600101908083116106fd575b5050505050915050919050565b60006060806000606060008060008060008060008c81526020019081526020016000209050806000015481600101826002018360030160009054906101000a900473ffffffffffffffffffffffffffffffffffffffff1684600401856005015486600601548760070160003373ffffffffffffffffffffffffffffffffffffffff1673ffffffffffffffffffffffffffffffffffffffff16815260200190815260200160002060009054906101000a900460ff1688600a0160009054906101000a900460ff168780546107f0906114d8565b80601f016020809104026020016040519081016040528092919081815260200182805461081c906114d8565b80156108695780601f1061083e57610100808354040283529160200191610869565b820191906000526020600020905b81548152906001019060200180831161084c57829003601f168201915b5050505050975086805461087c906114d8565b80601f01602080910402602001604051908101604052809291908181526020018280546108a8906114d8565b80156108f55780601f106108ca576101008083540402835291602001916108f5565b820191906000526020600020905b8154815290600101906020018083116108d857829003601f168201915b5050505050965084805480602002602001604051908101604052809291908181526020016000905b828210156109c957838290600052602060002001805461093c906114d8565b80601f0160208091040260200160405190810160405280929190818152602001828054610968906114d8565b80156109b55780601f1061098a576101008083540402835291602001916109b5565b820191906000526020600020905b81548152906001019060200180831161099857829003601f168201915b50505050508152602001906001019061091d565b505050509450995099509950995099509950995099509950509193959799909294969850565b60008551118015610a01575060008451115b610a40576040517f08c379a0000000000000000000000000000000000000000000000000000000008152600401610a379061196f565b60405180910390fd5b600283511015610a85576040517f08c379a0000000000000000000000000000000000000000000000000000000008152600401610a7c90611a01565b60405180910390fd5b808210610ac7576040517f08c379a0000000000000000000000000000000000000000000000000000000008152600401610abe90611a93565b60405180910390fd5b42821015610b0a576040517f08c379a0000000000000000000000000000000000000000000000000000000008152600401610b0190611aff565b60405180910390fd5b600080600060015481526020019081526020016000209050600154816000018190555085816001019081610b3e9190611ccb565b5084816002019081610b509190611ccb565b50338160030160006101000a81548173ffffffffffffffffffffffffffffffffffffffff021916908373ffffffffffffffffffffffffffffffffffffffff160217905550828160050181905550818160060181905550600081600a0160006101000a81548160ff02191690831515021790555060005b8451811015610c5f5781600401858281518110610be657610be56116df565b5b6020026020010151908060018154018082558091505060019003906000526020600020016000909190919091509081610c1f9190611ccb565b5081600901600090806001815401808255809150506001900390600052602060002001600090919091909150558080610c579061173d565b915050610bc6565b5060016000815480929190610c739061173d565b91905055507f7585f467599d0f008985f231af99293be388626ac16ca59505c2f8f88969cd6381600001543388604051610caf93929190611d9d565b60405180910390a1505050505050565b6000604051905090565b600080fd5b600080fd5b6000819050919050565b610ce681610cd3565b8114610cf157600080fd5b50565b600081359050610d0381610cdd565b92915050565b600060208284031215610d1f57610d1e610cc9565b5b6000610d2d84828501610cf4565b91505092915050565b610d3f81610cd3565b82525050565b600081519050919050565b600082825260208201905092915050565b60005b83811015610d7f578082015181840152602081019050610d64565b60008484015250505050565b6000601f19601f8301169050919050565b6000610da782610d45565b610db18185610d50565b9350610dc1818560208601610d61565b610dca81610d8b565b840191505092915050565b600073ffffffffffffffffffffffffffffffffffffffff82169050919050565b6000610e0082610dd5565b9050919050565b610e1081610df5565b82525050565b60008115159050919050565b610e2b81610e16565b82525050565b6000819050919050565b610e4481610e31565b82525050565b600061010082019050610e60600083018b610d36565b8181036020830152610e72818a610d9c565b90508181036040830152610e868189610d9c565b9050610e956060830188610e07565b610ea26080830187610d36565b610eaf60a0830186610d36565b610ebc60c0830185610e22565b610ec960e0830184610e3b565b9998505050505050505050565b6000602082019050610eeb6000830184610d36565b92915050565b60008060408385031215610f0857610f07610cc9565b5b6000610f1685828601610cf4565b9250506020610f2785828601610cf4565b9150509250929050565b600081519050919050565b600082825260208201905092915050565b6000819050602082019050919050565b610f6681610cd3565b82525050565b6000610f788383610f5d565b60208301905092915050565b6000602082019050919050565b6000610f9c82610f31565b610fa68185610f3c565b9350610fb183610f4d565b8060005b83811015610fe2578151610fc98882610f6c565b9750610fd483610f84565b925050600181019050610fb5565b5085935050505092915050565b600060208201905081810360008301526110098184610f91565b905092915050565b600081519050919050565b600082825260208201905092915050565b6000819050602082019050919050565b600082825260208201905092915050565b600061105982610d45565b611063818561103d565b9350611073818560208601610d61565b61107c81610d8b565b840191505092915050565b6000611093838361104e565b905092915050565b6000602082019050919050565b60006110b382611011565b6110bd818561101c565b9350836020820285016110cf8561102d565b8060005b8581101561110b57848403895281516110ec8582611087565b94506110f78361109b565b925060208a019950506001810190506110d3565b50829750879550505050505092915050565b600061012082019050611133600083018c610d36565b8181036020830152611145818b610d9c565b90508181036040830152611159818a610d9c565b90506111686060830189610e07565b818103608083015261117a81886110a8565b905061118960a0830187610d36565b61119660c0830186610d36565b6111a360e0830185610e22565b6111b1610100830184610e22565b9a9950505050505050505050565b600080fd5b600080fd5b7f4e487b7100000000000000000000000000000000000000000000000000000000600052604160045260246000fd5b61120182610d8b565b810181811067ffffffffffffffff821117156112205761121f6111c9565b5b80604052505050565b6000611233610cbf565b905061123f82826111f8565b919050565b600067ffffffffffffffff82111561125f5761125e6111c9565b5b61126882610d8b565b9050602081019050919050565b82818337600083830152505050565b600061129761129284611244565b611229565b9050828152602081018484840111156112b3576112b26111c4565b5b6112be848285611275565b509392505050565b600082601f8301126112db576112da6111bf565b5b81356112eb848260208601611284565b91505092915050565b600067ffffffffffffffff82111561130f5761130e6111c9565b5b602082029050602081019050919050565b600080fd5b6000611338611333846112f4565b611229565b9050808382526020820190506020840283018581111561135b5761135a611320565b5b835b818110156113a257803567ffffffffffffffff8111156113805761137f6111bf565b5b80860161138d89826112c6565b8552602085019450505060208101905061135d565b5050509392505050565b600082601f8301126113c1576113c06111bf565b5b81356113d1848260208601611325565b91505092915050565b600080600080600060a086880312156113f6576113f5610cc9565b5b600086013567ffffffffffffffff81111561141457611413610cce565b5b611420888289016112c6565b955050602086013567ffffffffffffffff81111561144157611440610cce565b5b61144d888289016112c6565b945050604086013567ffffffffffffffff81111561146e5761146d610cce565b5b61147a888289016113ac565b935050606061148b88828901610cf4565b925050608061149c88828901610cf4565b9150509295509295909350565b7f4e487b7100000000000000000000000000000000000000000000000000000000600052602260045260246000fd5b600060028204905060018216806114f057607f821691505b602082108103611503576115026114a9565b5b50919050565b7f566f74696e6720706572696f6420686173206e6f742073746172746564000000600082015250565b600061153f601d83610d50565b915061154a82611509565b602082019050919050565b6000602082019050818103600083015261156e81611532565b9050919050565b7f566f74696e6720706572696f642068617320656e646564000000000000000000600082015250565b60006115ab601783610d50565b91506115b682611575565b602082019050919050565b600060208201905081810360008301526115da8161159e565b9050919050565b7f596f75206861766520616c726561647920766f746564206f6e2074686973207060008201527f726f706f73616c00000000000000000000000000000000000000000000000000602082015250565b600061163d602783610d50565b9150611648826115e1565b604082019050919050565b6000602082019050818103600083015261166c81611630565b9050919050565b7f496e76616c696420766f74652063686f69636500000000000000000000000000600082015250565b60006116a9601383610d50565b91506116b482611673565b602082019050919050565b600060208201905081810360008301526116d88161169c565b9050919050565b7f4e487b7100000000000000000000000000000000000000000000000000000000600052603260045260246000fd5b7f4e487b7100000000000000000000000000000000000000000000000000000000600052601160045260246000fd5b600061174882610cd3565b91507fffffffffffffffffffffffffffffffffffffffffffffffffffffffffffffffff820361177a5761177961170e565b5b600182019050919050565b7f54616c6c792068617320616c7265616479206265656e20636f6d706c65746564600082015250565b60006117bb602083610d50565b91506117c682611785565b602082019050919050565b600060208201905081810360008301526117ea816117ae565b9050919050565b7f566f74696e6720706572696f64206973206e6f74206f76657220796574000000600082015250565b6000611827601d83610d50565b9150611832826117f1565b602082019050919050565b600060208201905081810360008301526118568161181a565b9050919050565b600061186882610cd3565b915061187383610cd3565b925082820390508181111561188b5761188a61170e565b5b92915050565b7f54616c6c79206973206e6f742079657420636f6d706c65746564000000000000600082015250565b60006118c7601a83610d50565b91506118d282611891565b602082019050919050565b600060208201905081810360008301526118f6816118ba565b9050919050565b7f5469746c6520616e64206465736372697074696f6e2063616e6e6f742062652060008201527f656d707479000000000000000000000000000000000000000000000000000000602082015250565b6000611959602583610d50565b9150611964826118fd565b604082019050919050565b600060208201905081810360008301526119888161194c565b9050919050565b7f4d7573742068617665206174206c656173742074776f20766f74696e67206f7060008201527f74696f6e73000000000000000000000000000000000000000000000000000000602082015250565b60006119eb602583610d50565b91506119f68261198f565b604082019050919050565b60006020820190508181036000830152611a1a816119de565b9050919050565b7f456e642074696d65206d7573742062652061667465722073746172742074696d60008201527f6500000000000000000000000000000000000000000000000000000000000000602082015250565b6000611a7d602183610d50565b9150611a8882611a21565b604082019050919050565b60006020820190508181036000830152611aac81611a70565b9050919050565b7f53746172742074696d65206d75737420626520696e2074686520667574757265600082015250565b6000611ae9602083610d50565b9150611af482611ab3565b602082019050919050565b60006020820190508181036000830152611b1881611adc565b9050919050565b60008190508160005260206000209050919050565b60006020601f8301049050919050565b600082821b905092915050565b600060088302611b817fffffffffffffffffffffffffffffffffffffffffffffffffffffffffffffffff82611b44565b611b8b8683611b44565b95508019841693508086168417925050509392505050565b6000819050919050565b6000611bc8611bc3611bbe84610cd3565b611ba3565b610cd3565b9050919050565b6000819050919050565b611be283611bad565b611bf6611bee82611bcf565b848454611b51565b825550505050565b600090565b611c0b611bfe565b611c16818484611bd9565b505050565b5b81811015611c3a57611c2f600082611c03565b600181019050611c1c565b5050565b601f821115611c7f57611c5081611b1f565b611c5984611b34565b81016020851015611c68578190505b611c7c611c7485611b34565b830182611c1b565b50505b505050565b600082821c905092915050565b6000611ca260001984600802611c84565b1980831691505092915050565b6000611cbb8383611c91565b9150826002028217905092915050565b611cd482610d45565b67ffffffffffffffff811115611ced57611cec6111c9565b5b611cf782546114d8565b611d02828285611c3e565b600060209050601f831160018114611d355760008415611d23578287015190505b611d2d8582611caf565b865550611d95565b601f198416611d4386611b1f565b60005b82811015611d6b57848901518255600182019150602085019450602081019050611d46565b86831015611d885784890151611d84601f891682611c91565b8355505b6001600288020188555050505b505050505050565b6000606082019050611db26000830186610d36565b611dbf6020830185610e07565b8181036040830152611dd18184610d9c565b905094935050505056fea26469706673582212205ae20728f2aaf130ddf7b147df7598c6c1ceedc2152b1fdfda078dbb6fc73d8564736f6c63430008110033",
  "linkReferences": {},
  "deployedLinkReferences": {}
}